{
	"Contacts/first_var.sol": {
		"ArtiGame": {
			"abi": [
				{
					"inputs": [],
					"stateMutability": "nonpayable",
					"type": "constructor"
				},
				{
					"inputs": [
						{
							"internalType": "uint256",
							"name": "",
							"type": "uint256"
						}
					],
					"name": "artifactToOwner",
					"outputs": [
						{
							"internalType": "address",
							"name": "",
							"type": "address"
						}
					],
					"stateMutability": "view",
					"type": "function"
				},
				{
					"inputs": [
						{
							"internalType": "uint256",
							"name": "",
							"type": "uint256"
						}
					],
					"name": "artifacts",
					"outputs": [
						{
							"internalType": "uint256",
							"name": "id",
							"type": "uint256"
						},
						{
							"internalType": "string",
							"name": "name",
							"type": "string"
						},
						{
							"internalType": "uint256",
							"name": "damage",
							"type": "uint256"
						},
						{
							"internalType": "uint256",
							"name": "defense",
							"type": "uint256"
						},
						{
							"internalType": "string",
							"name": "ipfsHash",
							"type": "string"
						},
						{
							"internalType": "address",
							"name": "creator",
							"type": "address"
						}
					],
					"stateMutability": "view",
					"type": "function"
				},
				{
					"inputs": [
						{
							"internalType": "address",
							"name": "",
							"type": "address"
						}
					],
					"name": "blacksmiths",
					"outputs": [
						{
							"internalType": "bool",
							"name": "",
							"type": "bool"
						}
					],
					"stateMutability": "view",
					"type": "function"
				},
				{
					"inputs": [
						{
							"internalType": "string",
							"name": "_name",
							"type": "string"
						},
						{
							"internalType": "uint256",
							"name": "_damage",
							"type": "uint256"
						},
						{
							"internalType": "uint256",
							"name": "_defense",
							"type": "uint256"
						},
						{
							"internalType": "string",
							"name": "_ipfsHash",
							"type": "string"
						},
						{
							"internalType": "address",
							"name": "_player",
							"type": "address"
						}
					],
					"name": "craftArtifact",
					"outputs": [
						{
							"internalType": "uint256",
							"name": "",
							"type": "uint256"
						}
					],
					"stateMutability": "nonpayable",
					"type": "function"
				},
				{
					"inputs": [],
					"name": "owner",
					"outputs": [
						{
							"internalType": "address",
							"name": "",
							"type": "address"
						}
					],
					"stateMutability": "view",
					"type": "function"
				},
				{
					"inputs": [
						{
							"internalType": "address",
							"name": "_blacksmith",
							"type": "address"
						}
					],
					"name": "registerBlacksmith",
					"outputs": [],
					"stateMutability": "nonpayable",
					"type": "function"
				}
			],
			"devdoc": {
				"kind": "dev",
				"methods": {
					"craftArtifact(string,uint256,uint256,string,address)": {
						"params": {
							"_damage": "Сила атаки",
							"_defense": "Показатель защиты",
							"_ipfsHash": "Ссылка на картинку/метаданные предмета в IPFS",
							"_name": "Название артефакта (например, \"Меч Тысячи Истин\")",
							"_player": "Кому в инвентарь положить этот предмет сразу после создания"
						}
					}
				},
				"version": 1
			},
			"evm": {
				"assembly": "    /* \"Contacts/first_var.sol\":55:3846  contract  ArtiGame {... */\n  mstore(0x40, 0x80)\n    /* \"Contacts/first_var.sol\":1000:1001  1 */\n  0x01\n    /* \"Contacts/first_var.sol\":966:1001  uint256 private _nextArtifactId = 1 */\n  0x03\n  sstore\n    /* \"Contacts/first_var.sol\":1008:1057  constructor() {... */\n  callvalue\n  dup1\n  iszero\n  tag_1\n  jumpi\n  revert(0x00, 0x00)\ntag_1:\n  pop\n    /* \"Contacts/first_var.sol\":1040:1050  msg.sender */\n  caller\n    /* \"Contacts/first_var.sol\":1032:1037  owner */\n  0x00\n  0x00\n    /* \"Contacts/first_var.sol\":1032:1050  owner = msg.sender */\n  0x0100\n  exp\n  dup2\n  sload\n  dup2\n  0xffffffffffffffffffffffffffffffffffffffff\n  mul\n  not\n  and\n  swap1\n  dup4\n  0xffffffffffffffffffffffffffffffffffffffff\n  and\n  mul\n  or\n  swap1\n  sstore\n  pop\n    /* \"Contacts/first_var.sol\":55:3846  contract  ArtiGame {... */\n  dataSize(sub_0)\n  dup1\n  dataOffset(sub_0)\n  0x00\n  codecopy\n  0x00\n  return\nstop\n\nsub_0: assembly {\n        /* \"Contacts/first_var.sol\":55:3846  contract  ArtiGame {... */\n      mstore(0x40, 0x80)\n      callvalue\n      dup1\n      iszero\n      tag_1\n      jumpi\n      revert(0x00, 0x00)\n    tag_1:\n      pop\n      jumpi(tag_2, lt(calldatasize, 0x04))\n      shr(0xe0, calldataload(0x00))\n      dup1\n      0x2df6b92e\n      eq\n      tag_3\n      jumpi\n      dup1\n      0x35c3ecee\n      eq\n      tag_4\n      jumpi\n      dup1\n      0x57f219b7\n      eq\n      tag_5\n      jumpi\n      dup1\n      0x8da5cb5b\n      eq\n      tag_6\n      jumpi\n      dup1\n      0xbd7e878f\n      eq\n      tag_7\n      jumpi\n      dup1\n      0xd6f8f75e\n      eq\n      tag_8\n      jumpi\n    tag_2:\n      revert(0x00, 0x00)\n        /* \"Contacts/first_var.sol\":1755:1798  mapping(address => bool) public blacksmiths */\n    tag_3:\n      tag_9\n      0x04\n      dup1\n      calldatasize\n      sub\n      dup2\n      add\n      swap1\n      tag_10\n      swap2\n      swap1\n      tag_11\n      jump\t// in\n    tag_10:\n      tag_12\n      jump\t// in\n    tag_9:\n      mload(0x40)\n      tag_13\n      swap2\n      swap1\n      tag_14\n      jump\t// in\n    tag_13:\n      mload(0x40)\n      dup1\n      swap2\n      sub\n      swap1\n      return\n        /* \"Contacts/first_var.sol\":2650:3841  function craftArtifact(... */\n    tag_4:\n      tag_15\n      0x04\n      dup1\n      calldatasize\n      sub\n      dup2\n      add\n      swap1\n      tag_16\n      swap2\n      swap1\n      tag_17\n      jump\t// in\n    tag_16:\n      tag_18\n      jump\t// in\n    tag_15:\n      mload(0x40)\n      tag_19\n      swap2\n      swap1\n      tag_20\n      jump\t// in\n    tag_19:\n      mload(0x40)\n      dup1\n      swap2\n      sub\n      swap1\n      return\n        /* \"Contacts/first_var.sol\":658:704  mapping (uint256 => Artifact) public artifacts */\n    tag_5:\n      tag_21\n      0x04\n      dup1\n      calldatasize\n      sub\n      dup2\n      add\n      swap1\n      tag_22\n      swap2\n      swap1\n      tag_23\n      jump\t// in\n    tag_22:\n      tag_24\n      jump\t// in\n    tag_21:\n      mload(0x40)\n      tag_25\n      swap7\n      swap6\n      swap5\n      swap4\n      swap3\n      swap2\n      swap1\n      tag_26\n      jump\t// in\n    tag_25:\n      mload(0x40)\n      dup1\n      swap2\n      sub\n      swap1\n      return\n        /* \"Contacts/first_var.sol\":606:626  address public owner */\n    tag_6:\n      tag_27\n      tag_28\n      jump\t// in\n    tag_27:\n      mload(0x40)\n      tag_29\n      swap2\n      swap1\n      tag_30\n      jump\t// in\n    tag_29:\n      mload(0x40)\n      dup1\n      swap2\n      sub\n      swap1\n      return\n        /* \"Contacts/first_var.sol\":723:773  mapping(uint256 => address) public artifactToOwner */\n    tag_7:\n      tag_31\n      0x04\n      dup1\n      calldatasize\n      sub\n      dup2\n      add\n      swap1\n      tag_32\n      swap2\n      swap1\n      tag_23\n      jump\t// in\n    tag_32:\n      tag_33\n      jump\t// in\n    tag_31:\n      mload(0x40)\n      tag_34\n      swap2\n      swap1\n      tag_30\n      jump\t// in\n    tag_34:\n      mload(0x40)\n      dup1\n      swap2\n      sub\n      swap1\n      return\n        /* \"Contacts/first_var.sol\":1805:2059  function registerBlacksmith(address _blacksmith) external onlyOwner {... */\n    tag_8:\n      tag_35\n      0x04\n      dup1\n      calldatasize\n      sub\n      dup2\n      add\n      swap1\n      tag_36\n      swap2\n      swap1\n      tag_11\n      jump\t// in\n    tag_36:\n      tag_37\n      jump\t// in\n    tag_35:\n      stop\n        /* \"Contacts/first_var.sol\":1755:1798  mapping(address => bool) public blacksmiths */\n    tag_12:\n      mstore(0x20, 0x04)\n      dup1\n      0x00\n      mstore\n      keccak256(0x00, 0x40)\n      0x00\n      swap2\n      pop\n      sload\n      swap1\n      0x0100\n      exp\n      swap1\n      div\n      0xff\n      and\n      dup2\n      jump\t// out\n        /* \"Contacts/first_var.sol\":2650:3841  function craftArtifact(... */\n    tag_18:\n        /* \"Contacts/first_var.sol\":2854:2861  uint256 */\n      0x00\n        /* \"Contacts/first_var.sol\":1636:1647  blacksmiths */\n      0x04\n        /* \"Contacts/first_var.sol\":1636:1659  blacksmiths[msg.sender] */\n      0x00\n        /* \"Contacts/first_var.sol\":1648:1658  msg.sender */\n      caller\n        /* \"Contacts/first_var.sol\":1636:1659  blacksmiths[msg.sender] */\n      0xffffffffffffffffffffffffffffffffffffffff\n      and\n      0xffffffffffffffffffffffffffffffffffffffff\n      and\n      dup2\n      mstore\n      0x20\n      add\n      swap1\n      dup2\n      mstore\n      0x20\n      add\n      0x00\n      keccak256\n      0x00\n      swap1\n      sload\n      swap1\n      0x0100\n      exp\n      swap1\n      div\n      0xff\n      and\n        /* \"Contacts/first_var.sol\":1636:1682  blacksmiths[msg.sender] || msg.sender == owner */\n      dup1\n      tag_39\n      jumpi\n      pop\n        /* \"Contacts/first_var.sol\":1677:1682  owner */\n      0x00\n      0x00\n      swap1\n      sload\n      swap1\n      0x0100\n      exp\n      swap1\n      div\n      0xffffffffffffffffffffffffffffffffffffffff\n      and\n        /* \"Contacts/first_var.sol\":1663:1682  msg.sender == owner */\n      0xffffffffffffffffffffffffffffffffffffffff\n      and\n        /* \"Contacts/first_var.sol\":1663:1673  msg.sender */\n      caller\n        /* \"Contacts/first_var.sol\":1663:1682  msg.sender == owner */\n      0xffffffffffffffffffffffffffffffffffffffff\n      and\n      eq\n        /* \"Contacts/first_var.sol\":1636:1682  blacksmiths[msg.sender] || msg.sender == owner */\n    tag_39:\n        /* \"Contacts/first_var.sol\":1628:1731  require(blacksmiths[msg.sender] || msg.sender == owner, \"ArtiGame: Only blacksmith or owner can craft\") */\n      tag_40\n      jumpi\n      mload(0x40)\n      0x08c379a000000000000000000000000000000000000000000000000000000000\n      dup2\n      mstore\n      0x04\n      add\n      tag_41\n      swap1\n      tag_42\n      jump\t// in\n    tag_41:\n      mload(0x40)\n      dup1\n      swap2\n      sub\n      swap1\n      revert\n    tag_40:\n        /* \"Contacts/first_var.sol\":2900:2901  0 */\n      0x00\n        /* \"Contacts/first_var.sol\":2881:2902  _player != address(0) */\n      0xffffffffffffffffffffffffffffffffffffffff\n      and\n        /* \"Contacts/first_var.sol\":2881:2888  _player */\n      dup3\n        /* \"Contacts/first_var.sol\":2881:2902  _player != address(0) */\n      0xffffffffffffffffffffffffffffffffffffffff\n      and\n      sub\n        /* \"Contacts/first_var.sol\":2873:2945  require(_player != address(0), \"ArtiGame: Cannot craft to zero address\") */\n      tag_44\n      jumpi\n      mload(0x40)\n      0x08c379a000000000000000000000000000000000000000000000000000000000\n      dup2\n      mstore\n      0x04\n      add\n      tag_45\n      swap1\n      tag_46\n      jump\t// in\n    tag_45:\n      mload(0x40)\n      dup1\n      swap2\n      sub\n      swap1\n      revert\n    tag_44:\n        /* \"Contacts/first_var.sol\":3018:3035  uint256 currentId */\n      0x00\n        /* \"Contacts/first_var.sol\":3038:3053  _nextArtifactId */\n      sload(0x03)\n        /* \"Contacts/first_var.sol\":3018:3053  uint256 currentId = _nextArtifactId */\n      swap1\n      pop\n        /* \"Contacts/first_var.sol\":3169:3184  _nextArtifactId */\n      0x03\n      0x00\n        /* \"Contacts/first_var.sol\":3169:3186  _nextArtifactId++ */\n      dup2\n      sload\n      dup1\n      swap3\n      swap2\n      swap1\n      tag_47\n      swap1\n      tag_48\n      jump\t// in\n    tag_47:\n      swap2\n      swap1\n      pop\n      sstore\n      pop\n        /* \"Contacts/first_var.sol\":3340:3618  Artifact({... */\n      mload(0x40)\n      dup1\n      0xc0\n      add\n      0x40\n      mstore\n      dup1\n        /* \"Contacts/first_var.sol\":3367:3376  currentId */\n      dup3\n        /* \"Contacts/first_var.sol\":3340:3618  Artifact({... */\n      dup2\n      mstore\n      0x20\n      add\n        /* \"Contacts/first_var.sol\":3396:3401  _name */\n      dup11\n      dup11\n        /* \"Contacts/first_var.sol\":3340:3618  Artifact({... */\n      dup1\n      dup1\n      0x1f\n      add\n      0x20\n      dup1\n      swap2\n      div\n      mul\n      0x20\n      add\n      mload(0x40)\n      swap1\n      dup2\n      add\n      0x40\n      mstore\n      dup1\n      swap4\n      swap3\n      swap2\n      swap1\n      dup2\n      dup2\n      mstore\n      0x20\n      add\n      dup4\n      dup4\n      dup1\n      dup3\n      dup5\n      calldatacopy\n      0x00\n      dup2\n      dup5\n      add\n      mstore\n      not(0x1f)\n      0x1f\n      dup3\n      add\n      and\n      swap1\n      pop\n      dup1\n      dup4\n      add\n      swap3\n      pop\n      pop\n      pop\n      pop\n      pop\n      pop\n      pop\n      dup2\n      mstore\n      0x20\n      add\n        /* \"Contacts/first_var.sol\":3423:3430  _damage */\n      dup9\n        /* \"Contacts/first_var.sol\":3340:3618  Artifact({... */\n      dup2\n      mstore\n      0x20\n      add\n        /* \"Contacts/first_var.sol\":3453:3461  _defense */\n      dup8\n        /* \"Contacts/first_var.sol\":3340:3618  Artifact({... */\n      dup2\n      mstore\n      0x20\n      add\n        /* \"Contacts/first_var.sol\":3485:3494  _ipfsHash */\n      dup7\n      dup7\n        /* \"Contacts/first_var.sol\":3340:3618  Artifact({... */\n      dup1\n      dup1\n      0x1f\n      add\n      0x20\n      dup1\n      swap2\n      div\n      mul\n      0x20\n      add\n      mload(0x40)\n      swap1\n      dup2\n      add\n      0x40\n      mstore\n      dup1\n      swap4\n      swap3\n      swap2\n      swap1\n      dup2\n      dup2\n      mstore\n      0x20\n      add\n      dup4\n      dup4\n      dup1\n      dup3\n      dup5\n      calldatacopy\n      0x00\n      dup2\n      dup5\n      add\n      mstore\n      not(0x1f)\n      0x1f\n      dup3\n      add\n      and\n      swap1\n      pop\n      dup1\n      dup4\n      add\n      swap3\n      pop\n      pop\n      pop\n      pop\n      pop\n      pop\n      pop\n      dup2\n      mstore\n      0x20\n      add\n        /* \"Contacts/first_var.sol\":3517:3527  msg.sender */\n      caller\n        /* \"Contacts/first_var.sol\":3340:3618  Artifact({... */\n      0xffffffffffffffffffffffffffffffffffffffff\n      and\n      dup2\n      mstore\n      pop\n        /* \"Contacts/first_var.sol\":3317:3326  artifacts */\n      0x01\n        /* \"Contacts/first_var.sol\":3317:3337  artifacts[currentId] */\n      0x00\n        /* \"Contacts/first_var.sol\":3327:3336  currentId */\n      dup4\n        /* \"Contacts/first_var.sol\":3317:3337  artifacts[currentId] */\n      dup2\n      mstore\n      0x20\n      add\n      swap1\n      dup2\n      mstore\n      0x20\n      add\n      0x00\n      keccak256\n        /* \"Contacts/first_var.sol\":3317:3618  artifacts[currentId] = Artifact({... */\n      0x00\n      dup3\n      add\n      mload\n      dup2\n      0x00\n      add\n      sstore\n      0x20\n      dup3\n      add\n      mload\n      dup2\n      0x01\n      add\n      swap1\n      dup2\n      tag_49\n      swap2\n      swap1\n      tag_50\n      jump\t// in\n    tag_49:\n      pop\n      0x40\n      dup3\n      add\n      mload\n      dup2\n      0x02\n      add\n      sstore\n      0x60\n      dup3\n      add\n      mload\n      dup2\n      0x03\n      add\n      sstore\n      0x80\n      dup3\n      add\n      mload\n      dup2\n      0x04\n      add\n      swap1\n      dup2\n      tag_51\n      swap2\n      swap1\n      tag_50\n      jump\t// in\n    tag_51:\n      pop\n      0xa0\n      dup3\n      add\n      mload\n      dup2\n      0x05\n      add\n      exp(0x0100, 0x00)\n      dup2\n      sload\n      dup2\n      0xffffffffffffffffffffffffffffffffffffffff\n      mul\n      not\n      and\n      swap1\n      dup4\n      0xffffffffffffffffffffffffffffffffffffffff\n      and\n      mul\n      or\n      swap1\n      sstore\n      pop\n      swap1\n      pop\n      pop\n        /* \"Contacts/first_var.sol\":3745:3752  _player */\n      dup3\n        /* \"Contacts/first_var.sol\":3716:3731  artifactToOwner */\n      0x02\n        /* \"Contacts/first_var.sol\":3716:3742  artifactToOwner[currentId] */\n      0x00\n        /* \"Contacts/first_var.sol\":3732:3741  currentId */\n      dup4\n        /* \"Contacts/first_var.sol\":3716:3742  artifactToOwner[currentId] */\n      dup2\n      mstore\n      0x20\n      add\n      swap1\n      dup2\n      mstore\n      0x20\n      add\n      0x00\n      keccak256\n      0x00\n        /* \"Contacts/first_var.sol\":3716:3752  artifactToOwner[currentId] = _player */\n      0x0100\n      exp\n      dup2\n      sload\n      dup2\n      0xffffffffffffffffffffffffffffffffffffffff\n      mul\n      not\n      and\n      swap1\n      dup4\n      0xffffffffffffffffffffffffffffffffffffffff\n      and\n      mul\n      or\n      swap1\n      sstore\n      pop\n        /* \"Contacts/first_var.sol\":3770:3779  currentId */\n      dup1\n        /* \"Contacts/first_var.sol\":3763:3779  return currentId */\n      swap2\n      pop\n      pop\n        /* \"Contacts/first_var.sol\":2650:3841  function craftArtifact(... */\n      swap8\n      swap7\n      pop\n      pop\n      pop\n      pop\n      pop\n      pop\n      pop\n      jump\t// out\n        /* \"Contacts/first_var.sol\":658:704  mapping (uint256 => Artifact) public artifacts */\n    tag_24:\n      mstore(0x20, 0x01)\n      dup1\n      0x00\n      mstore\n      keccak256(0x00, 0x40)\n      0x00\n      swap2\n      pop\n      swap1\n      pop\n      dup1\n      0x00\n      add\n      sload\n      swap1\n      dup1\n      0x01\n      add\n      dup1\n      sload\n      tag_52\n      swap1\n      tag_53\n      jump\t// in\n    tag_52:\n      dup1\n      0x1f\n      add\n      0x20\n      dup1\n      swap2\n      div\n      mul\n      0x20\n      add\n      mload(0x40)\n      swap1\n      dup2\n      add\n      0x40\n      mstore\n      dup1\n      swap3\n      swap2\n      swap1\n      dup2\n      dup2\n      mstore\n      0x20\n      add\n      dup3\n      dup1\n      sload\n      tag_54\n      swap1\n      tag_53\n      jump\t// in\n    tag_54:\n      dup1\n      iszero\n      tag_55\n      jumpi\n      dup1\n      0x1f\n      lt\n      tag_56\n      jumpi\n      0x0100\n      dup1\n      dup4\n      sload\n      div\n      mul\n      dup4\n      mstore\n      swap2\n      0x20\n      add\n      swap2\n      jump(tag_55)\n    tag_56:\n      dup3\n      add\n      swap2\n      swap1\n      0x00\n      mstore\n      keccak256(0x00, 0x20)\n      swap1\n    tag_57:\n      dup2\n      sload\n      dup2\n      mstore\n      swap1\n      0x01\n      add\n      swap1\n      0x20\n      add\n      dup1\n      dup4\n      gt\n      tag_57\n      jumpi\n      dup3\n      swap1\n      sub\n      0x1f\n      and\n      dup3\n      add\n      swap2\n    tag_55:\n      pop\n      pop\n      pop\n      pop\n      pop\n      swap1\n      dup1\n      0x02\n      add\n      sload\n      swap1\n      dup1\n      0x03\n      add\n      sload\n      swap1\n      dup1\n      0x04\n      add\n      dup1\n      sload\n      tag_58\n      swap1\n      tag_53\n      jump\t// in\n    tag_58:\n      dup1\n      0x1f\n      add\n      0x20\n      dup1\n      swap2\n      div\n      mul\n      0x20\n      add\n      mload(0x40)\n      swap1\n      dup2\n      add\n      0x40\n      mstore\n      dup1\n      swap3\n      swap2\n      swap1\n      dup2\n      dup2\n      mstore\n      0x20\n      add\n      dup3\n      dup1\n      sload\n      tag_59\n      swap1\n      tag_53\n      jump\t// in\n    tag_59:\n      dup1\n      iszero\n      tag_60\n      jumpi\n      dup1\n      0x1f\n      lt\n      tag_61\n      jumpi\n      0x0100\n      dup1\n      dup4\n      sload\n      div\n      mul\n      dup4\n      mstore\n      swap2\n      0x20\n      add\n      swap2\n      jump(tag_60)\n    tag_61:\n      dup3\n      add\n      swap2\n      swap1\n      0x00\n      mstore\n      keccak256(0x00, 0x20)\n      swap1\n    tag_62:\n      dup2\n      sload\n      dup2\n      mstore\n      swap1\n      0x01\n      add\n      swap1\n      0x20\n      add\n      dup1\n      dup4\n      gt\n      tag_62\n      jumpi\n      dup3\n      swap1\n      sub\n      0x1f\n      and\n      dup3\n      add\n      swap2\n    tag_60:\n      pop\n      pop\n      pop\n      pop\n      pop\n      swap1\n      dup1\n      0x05\n      add\n      0x00\n      swap1\n      sload\n      swap1\n      0x0100\n      exp\n      swap1\n      div\n      0xffffffffffffffffffffffffffffffffffffffff\n      and\n      swap1\n      pop\n      dup7\n      jump\t// out\n        /* \"Contacts/first_var.sol\":606:626  address public owner */\n    tag_28:\n      0x00\n      0x00\n      swap1\n      sload\n      swap1\n      0x0100\n      exp\n      swap1\n      div\n      0xffffffffffffffffffffffffffffffffffffffff\n      and\n      dup2\n      jump\t// out\n        /* \"Contacts/first_var.sol\":723:773  mapping(uint256 => address) public artifactToOwner */\n    tag_33:\n      mstore(0x20, 0x02)\n      dup1\n      0x00\n      mstore\n      keccak256(0x00, 0x40)\n      0x00\n      swap2\n      pop\n      sload\n      swap1\n      0x0100\n      exp\n      swap1\n      div\n      0xffffffffffffffffffffffffffffffffffffffff\n      and\n      dup2\n      jump\t// out\n        /* \"Contacts/first_var.sol\":1805:2059  function registerBlacksmith(address _blacksmith) external onlyOwner {... */\n    tag_37:\n        /* \"Contacts/first_var.sol\":1233:1238  owner */\n      0x00\n      0x00\n      swap1\n      sload\n      swap1\n      0x0100\n      exp\n      swap1\n      div\n      0xffffffffffffffffffffffffffffffffffffffff\n      and\n        /* \"Contacts/first_var.sol\":1219:1238  msg.sender == owner */\n      0xffffffffffffffffffffffffffffffffffffffff\n      and\n        /* \"Contacts/first_var.sol\":1219:1229  msg.sender */\n      caller\n        /* \"Contacts/first_var.sol\":1219:1238  msg.sender == owner */\n      0xffffffffffffffffffffffffffffffffffffffff\n      and\n      eq\n        /* \"Contacts/first_var.sol\":1211:1277  require(msg.sender == owner, \"ArtiGame: Only owner can call this\") */\n      tag_64\n      jumpi\n      mload(0x40)\n      0x08c379a000000000000000000000000000000000000000000000000000000000\n      dup2\n      mstore\n      0x04\n      add\n      tag_65\n      swap1\n      tag_66\n      jump\t// in\n    tag_65:\n      mload(0x40)\n      dup1\n      swap2\n      sub\n      swap1\n      revert\n    tag_64:\n        /* \"Contacts/first_var.sol\":1914:1915  0 */\n      0x00\n        /* \"Contacts/first_var.sol\":1891:1916  _blacksmith != address(0) */\n      0xffffffffffffffffffffffffffffffffffffffff\n      and\n        /* \"Contacts/first_var.sol\":1891:1902  _blacksmith */\n      dup2\n        /* \"Contacts/first_var.sol\":1891:1916  _blacksmith != address(0) */\n      0xffffffffffffffffffffffffffffffffffffffff\n      and\n      sub\n        /* \"Contacts/first_var.sol\":1883:1946  require(_blacksmith != address(0), \"ArtiGame: Invalid address\") */\n      tag_68\n      jumpi\n      mload(0x40)\n      0x08c379a000000000000000000000000000000000000000000000000000000000\n      dup2\n      mstore\n      0x04\n      add\n      tag_69\n      swap1\n      tag_70\n      jump\t// in\n    tag_69:\n      mload(0x40)\n      dup1\n      swap2\n      sub\n      swap1\n      revert\n    tag_68:\n        /* \"Contacts/first_var.sol\":1965:1976  blacksmiths */\n      0x04\n        /* \"Contacts/first_var.sol\":1965:1989  blacksmiths[_blacksmith] */\n      0x00\n        /* \"Contacts/first_var.sol\":1977:1988  _blacksmith */\n      dup3\n        /* \"Contacts/first_var.sol\":1965:1989  blacksmiths[_blacksmith] */\n      0xffffffffffffffffffffffffffffffffffffffff\n      and\n      0xffffffffffffffffffffffffffffffffffffffff\n      and\n      dup2\n      mstore\n      0x20\n      add\n      swap1\n      dup2\n      mstore\n      0x20\n      add\n      0x00\n      keccak256\n      0x00\n      swap1\n      sload\n      swap1\n      0x0100\n      exp\n      swap1\n      div\n      0xff\n      and\n        /* \"Contacts/first_var.sol\":1964:1989  !blacksmiths[_blacksmith] */\n      iszero\n        /* \"Contacts/first_var.sol\":1956:2011  require(!blacksmiths[_blacksmith], \"ArtyGame: Already\") */\n      tag_71\n      jumpi\n      mload(0x40)\n      0x08c379a000000000000000000000000000000000000000000000000000000000\n      dup2\n      mstore\n      0x04\n      add\n      tag_72\n      swap1\n      tag_73\n      jump\t// in\n    tag_72:\n      mload(0x40)\n      dup1\n      swap2\n      sub\n      swap1\n      revert\n    tag_71:\n        /* \"Contacts/first_var.sol\":2048:2052  true */\n      0x01\n        /* \"Contacts/first_var.sol\":2021:2032  blacksmiths */\n      0x04\n        /* \"Contacts/first_var.sol\":2021:2045  blacksmiths[_blacksmith] */\n      0x00\n        /* \"Contacts/first_var.sol\":2033:2044  _blacksmith */\n      dup4\n        /* \"Contacts/first_var.sol\":2021:2045  blacksmiths[_blacksmith] */\n      0xffffffffffffffffffffffffffffffffffffffff\n      and\n      0xffffffffffffffffffffffffffffffffffffffff\n      and\n      dup2\n      mstore\n      0x20\n      add\n      swap1\n      dup2\n      mstore\n      0x20\n      add\n      0x00\n      keccak256\n      0x00\n        /* \"Contacts/first_var.sol\":2021:2052  blacksmiths[_blacksmith] = true */\n      0x0100\n      exp\n      dup2\n      sload\n      dup2\n      0xff\n      mul\n      not\n      and\n      swap1\n      dup4\n      iszero\n      iszero\n      mul\n      or\n      swap1\n      sstore\n      pop\n        /* \"Contacts/first_var.sol\":1805:2059  function registerBlacksmith(address _blacksmith) external onlyOwner {... */\n      pop\n      jump\t// out\n        /* \"#utility.yul\":88:205   */\n    tag_75:\n        /* \"#utility.yul\":197:198   */\n      0x00\n        /* \"#utility.yul\":194:195   */\n      0x00\n        /* \"#utility.yul\":187:199   */\n      revert\n        /* \"#utility.yul\":211:328   */\n    tag_76:\n        /* \"#utility.yul\":320:321   */\n      0x00\n        /* \"#utility.yul\":317:318   */\n      0x00\n        /* \"#utility.yul\":310:322   */\n      revert\n        /* \"#utility.yul\":334:460   */\n    tag_77:\n        /* \"#utility.yul\":371:378   */\n      0x00\n        /* \"#utility.yul\":411:453   */\n      0xffffffffffffffffffffffffffffffffffffffff\n        /* \"#utility.yul\":404:409   */\n      dup3\n        /* \"#utility.yul\":400:454   */\n      and\n        /* \"#utility.yul\":389:454   */\n      swap1\n      pop\n        /* \"#utility.yul\":334:460   */\n      swap2\n      swap1\n      pop\n      jump\t// out\n        /* \"#utility.yul\":466:562   */\n    tag_78:\n        /* \"#utility.yul\":503:510   */\n      0x00\n        /* \"#utility.yul\":532:556   */\n      tag_131\n        /* \"#utility.yul\":550:555   */\n      dup3\n        /* \"#utility.yul\":532:556   */\n      tag_77\n      jump\t// in\n    tag_131:\n        /* \"#utility.yul\":521:556   */\n      swap1\n      pop\n        /* \"#utility.yul\":466:562   */\n      swap2\n      swap1\n      pop\n      jump\t// out\n        /* \"#utility.yul\":568:690   */\n    tag_79:\n        /* \"#utility.yul\":641:665   */\n      tag_133\n        /* \"#utility.yul\":659:664   */\n      dup2\n        /* \"#utility.yul\":641:665   */\n      tag_78\n      jump\t// in\n    tag_133:\n        /* \"#utility.yul\":634:639   */\n      dup2\n        /* \"#utility.yul\":631:666   */\n      eq\n        /* \"#utility.yul\":621:684   */\n      tag_134\n      jumpi\n        /* \"#utility.yul\":680:681   */\n      0x00\n        /* \"#utility.yul\":677:678   */\n      0x00\n        /* \"#utility.yul\":670:682   */\n      revert\n        /* \"#utility.yul\":621:684   */\n    tag_134:\n        /* \"#utility.yul\":568:690   */\n      pop\n      jump\t// out\n        /* \"#utility.yul\":696:835   */\n    tag_80:\n        /* \"#utility.yul\":742:747   */\n      0x00\n        /* \"#utility.yul\":780:786   */\n      dup2\n        /* \"#utility.yul\":767:787   */\n      calldataload\n        /* \"#utility.yul\":758:787   */\n      swap1\n      pop\n        /* \"#utility.yul\":796:829   */\n      tag_136\n        /* \"#utility.yul\":823:828   */\n      dup2\n        /* \"#utility.yul\":796:829   */\n      tag_79\n      jump\t// in\n    tag_136:\n        /* \"#utility.yul\":696:835   */\n      swap3\n      swap2\n      pop\n      pop\n      jump\t// out\n        /* \"#utility.yul\":841:1170   */\n    tag_11:\n        /* \"#utility.yul\":900:906   */\n      0x00\n        /* \"#utility.yul\":949:951   */\n      0x20\n        /* \"#utility.yul\":937:946   */\n      dup3\n        /* \"#utility.yul\":928:935   */\n      dup5\n        /* \"#utility.yul\":924:947   */\n      sub\n        /* \"#utility.yul\":920:952   */\n      slt\n        /* \"#utility.yul\":917:1036   */\n      iszero\n      tag_138\n      jumpi\n        /* \"#utility.yul\":955:1034   */\n      tag_139\n      tag_75\n      jump\t// in\n    tag_139:\n        /* \"#utility.yul\":917:1036   */\n    tag_138:\n        /* \"#utility.yul\":1075:1076   */\n      0x00\n        /* \"#utility.yul\":1100:1153   */\n      tag_140\n        /* \"#utility.yul\":1145:1152   */\n      dup5\n        /* \"#utility.yul\":1136:1142   */\n      dup3\n        /* \"#utility.yul\":1125:1134   */\n      dup6\n        /* \"#utility.yul\":1121:1143   */\n      add\n        /* \"#utility.yul\":1100:1153   */\n      tag_80\n      jump\t// in\n    tag_140:\n        /* \"#utility.yul\":1090:1153   */\n      swap2\n      pop\n        /* \"#utility.yul\":1046:1163   */\n      pop\n        /* \"#utility.yul\":841:1170   */\n      swap3\n      swap2\n      pop\n      pop\n      jump\t// out\n        /* \"#utility.yul\":1176:1266   */\n    tag_81:\n        /* \"#utility.yul\":1210:1217   */\n      0x00\n        /* \"#utility.yul\":1253:1258   */\n      dup2\n        /* \"#utility.yul\":1246:1259   */\n      iszero\n        /* \"#utility.yul\":1239:1260   */\n      iszero\n        /* \"#utility.yul\":1228:1260   */\n      swap1\n      pop\n        /* \"#utility.yul\":1176:1266   */\n      swap2\n      swap1\n      pop\n      jump\t// out\n        /* \"#utility.yul\":1272:1381   */\n    tag_82:\n        /* \"#utility.yul\":1353:1374   */\n      tag_143\n        /* \"#utility.yul\":1368:1373   */\n      dup2\n        /* \"#utility.yul\":1353:1374   */\n      tag_81\n      jump\t// in\n    tag_143:\n        /* \"#utility.yul\":1348:1351   */\n      dup3\n        /* \"#utility.yul\":1341:1375   */\n      mstore\n        /* \"#utility.yul\":1272:1381   */\n      pop\n      pop\n      jump\t// out\n        /* \"#utility.yul\":1387:1597   */\n    tag_14:\n        /* \"#utility.yul\":1474:1478   */\n      0x00\n        /* \"#utility.yul\":1512:1514   */\n      0x20\n        /* \"#utility.yul\":1501:1510   */\n      dup3\n        /* \"#utility.yul\":1497:1515   */\n      add\n        /* \"#utility.yul\":1489:1515   */\n      swap1\n      pop\n        /* \"#utility.yul\":1525:1590   */\n      tag_145\n        /* \"#utility.yul\":1587:1588   */\n      0x00\n        /* \"#utility.yul\":1576:1585   */\n      dup4\n        /* \"#utility.yul\":1572:1589   */\n      add\n        /* \"#utility.yul\":1563:1569   */\n      dup5\n        /* \"#utility.yul\":1525:1590   */\n      tag_82\n      jump\t// in\n    tag_145:\n        /* \"#utility.yul\":1387:1597   */\n      swap3\n      swap2\n      pop\n      pop\n      jump\t// out\n        /* \"#utility.yul\":1603:1720   */\n    tag_83:\n        /* \"#utility.yul\":1712:1713   */\n      0x00\n        /* \"#utility.yul\":1709:1710   */\n      0x00\n        /* \"#utility.yul\":1702:1714   */\n      revert\n        /* \"#utility.yul\":1726:1843   */\n    tag_84:\n        /* \"#utility.yul\":1835:1836   */\n      0x00\n        /* \"#utility.yul\":1832:1833   */\n      0x00\n        /* \"#utility.yul\":1825:1837   */\n      revert\n        /* \"#utility.yul\":1849:1966   */\n    tag_85:\n        /* \"#utility.yul\":1958:1959   */\n      0x00\n        /* \"#utility.yul\":1955:1956   */\n      0x00\n        /* \"#utility.yul\":1948:1960   */\n      revert\n        /* \"#utility.yul\":1986:2539   */\n    tag_86:\n        /* \"#utility.yul\":2044:2052   */\n      0x00\n        /* \"#utility.yul\":2054:2060   */\n      0x00\n        /* \"#utility.yul\":2104:2107   */\n      dup4\n        /* \"#utility.yul\":2097:2101   */\n      0x1f\n        /* \"#utility.yul\":2089:2095   */\n      dup5\n        /* \"#utility.yul\":2085:2102   */\n      add\n        /* \"#utility.yul\":2081:2108   */\n      slt\n        /* \"#utility.yul\":2071:2193   */\n      tag_150\n      jumpi\n        /* \"#utility.yul\":2112:2191   */\n      tag_151\n      tag_83\n      jump\t// in\n    tag_151:\n        /* \"#utility.yul\":2071:2193   */\n    tag_150:\n        /* \"#utility.yul\":2225:2231   */\n      dup3\n        /* \"#utility.yul\":2212:2232   */\n      calldataload\n        /* \"#utility.yul\":2202:2232   */\n      swap1\n      pop\n        /* \"#utility.yul\":2255:2273   */\n      0xffffffffffffffff\n        /* \"#utility.yul\":2247:2253   */\n      dup2\n        /* \"#utility.yul\":2244:2274   */\n      gt\n        /* \"#utility.yul\":2241:2358   */\n      iszero\n      tag_152\n      jumpi\n        /* \"#utility.yul\":2277:2356   */\n      tag_153\n      tag_84\n      jump\t// in\n    tag_153:\n        /* \"#utility.yul\":2241:2358   */\n    tag_152:\n        /* \"#utility.yul\":2391:2395   */\n      0x20\n        /* \"#utility.yul\":2383:2389   */\n      dup4\n        /* \"#utility.yul\":2379:2396   */\n      add\n        /* \"#utility.yul\":2367:2396   */\n      swap2\n      pop\n        /* \"#utility.yul\":2445:2448   */\n      dup4\n        /* \"#utility.yul\":2437:2441   */\n      0x01\n        /* \"#utility.yul\":2429:2435   */\n      dup3\n        /* \"#utility.yul\":2425:2442   */\n      mul\n        /* \"#utility.yul\":2415:2423   */\n      dup4\n        /* \"#utility.yul\":2411:2443   */\n      add\n        /* \"#utility.yul\":2408:2449   */\n      gt\n        /* \"#utility.yul\":2405:2533   */\n      iszero\n      tag_154\n      jumpi\n        /* \"#utility.yul\":2452:2531   */\n      tag_155\n      tag_85\n      jump\t// in\n    tag_155:\n        /* \"#utility.yul\":2405:2533   */\n    tag_154:\n        /* \"#utility.yul\":1986:2539   */\n      swap3\n      pop\n      swap3\n      swap1\n      pop\n      jump\t// out\n        /* \"#utility.yul\":2545:2622   */\n    tag_87:\n        /* \"#utility.yul\":2582:2589   */\n      0x00\n        /* \"#utility.yul\":2611:2616   */\n      dup2\n        /* \"#utility.yul\":2600:2616   */\n      swap1\n      pop\n        /* \"#utility.yul\":2545:2622   */\n      swap2\n      swap1\n      pop\n      jump\t// out\n        /* \"#utility.yul\":2628:2750   */\n    tag_88:\n        /* \"#utility.yul\":2701:2725   */\n      tag_158\n        /* \"#utility.yul\":2719:2724   */\n      dup2\n        /* \"#utility.yul\":2701:2725   */\n      tag_87\n      jump\t// in\n    tag_158:\n        /* \"#utility.yul\":2694:2699   */\n      dup2\n        /* \"#utility.yul\":2691:2726   */\n      eq\n        /* \"#utility.yul\":2681:2744   */\n      tag_159\n      jumpi\n        /* \"#utility.yul\":2740:2741   */\n      0x00\n        /* \"#utility.yul\":2737:2738   */\n      0x00\n        /* \"#utility.yul\":2730:2742   */\n      revert\n        /* \"#utility.yul\":2681:2744   */\n    tag_159:\n        /* \"#utility.yul\":2628:2750   */\n      pop\n      jump\t// out\n        /* \"#utility.yul\":2756:2895   */\n    tag_89:\n        /* \"#utility.yul\":2802:2807   */\n      0x00\n        /* \"#utility.yul\":2840:2846   */\n      dup2\n        /* \"#utility.yul\":2827:2847   */\n      calldataload\n        /* \"#utility.yul\":2818:2847   */\n      swap1\n      pop\n        /* \"#utility.yul\":2856:2889   */\n      tag_161\n        /* \"#utility.yul\":2883:2888   */\n      dup2\n        /* \"#utility.yul\":2856:2889   */\n      tag_88\n      jump\t// in\n    tag_161:\n        /* \"#utility.yul\":2756:2895   */\n      swap3\n      swap2\n      pop\n      pop\n      jump\t// out\n        /* \"#utility.yul\":2901:4212   */\n    tag_17:\n        /* \"#utility.yul\":3020:3026   */\n      0x00\n        /* \"#utility.yul\":3028:3034   */\n      0x00\n        /* \"#utility.yul\":3036:3042   */\n      0x00\n        /* \"#utility.yul\":3044:3050   */\n      0x00\n        /* \"#utility.yul\":3052:3058   */\n      0x00\n        /* \"#utility.yul\":3060:3066   */\n      0x00\n        /* \"#utility.yul\":3068:3074   */\n      0x00\n        /* \"#utility.yul\":3117:3120   */\n      0xa0\n        /* \"#utility.yul\":3105:3114   */\n      dup9\n        /* \"#utility.yul\":3096:3103   */\n      dup11\n        /* \"#utility.yul\":3092:3115   */\n      sub\n        /* \"#utility.yul\":3088:3121   */\n      slt\n        /* \"#utility.yul\":3085:3205   */\n      iszero\n      tag_163\n      jumpi\n        /* \"#utility.yul\":3124:3203   */\n      tag_164\n      tag_75\n      jump\t// in\n    tag_164:\n        /* \"#utility.yul\":3085:3205   */\n    tag_163:\n        /* \"#utility.yul\":3272:3273   */\n      0x00\n        /* \"#utility.yul\":3261:3270   */\n      dup9\n        /* \"#utility.yul\":3257:3274   */\n      add\n        /* \"#utility.yul\":3244:3275   */\n      calldataload\n        /* \"#utility.yul\":3302:3320   */\n      0xffffffffffffffff\n        /* \"#utility.yul\":3294:3300   */\n      dup2\n        /* \"#utility.yul\":3291:3321   */\n      gt\n        /* \"#utility.yul\":3288:3405   */\n      iszero\n      tag_165\n      jumpi\n        /* \"#utility.yul\":3324:3403   */\n      tag_166\n      tag_76\n      jump\t// in\n    tag_166:\n        /* \"#utility.yul\":3288:3405   */\n    tag_165:\n        /* \"#utility.yul\":3437:3502   */\n      tag_167\n        /* \"#utility.yul\":3494:3501   */\n      dup11\n        /* \"#utility.yul\":3485:3491   */\n      dup3\n        /* \"#utility.yul\":3474:3483   */\n      dup12\n        /* \"#utility.yul\":3470:3492   */\n      add\n        /* \"#utility.yul\":3437:3502   */\n      tag_86\n      jump\t// in\n    tag_167:\n        /* \"#utility.yul\":3419:3502   */\n      swap8\n      pop\n      swap8\n      pop\n        /* \"#utility.yul\":3215:3512   */\n      pop\n        /* \"#utility.yul\":3551:3553   */\n      0x20\n        /* \"#utility.yul\":3577:3630   */\n      tag_168\n        /* \"#utility.yul\":3622:3629   */\n      dup11\n        /* \"#utility.yul\":3613:3619   */\n      dup3\n        /* \"#utility.yul\":3602:3611   */\n      dup12\n        /* \"#utility.yul\":3598:3620   */\n      add\n        /* \"#utility.yul\":3577:3630   */\n      tag_89\n      jump\t// in\n    tag_168:\n        /* \"#utility.yul\":3567:3630   */\n      swap6\n      pop\n        /* \"#utility.yul\":3522:3640   */\n      pop\n        /* \"#utility.yul\":3679:3681   */\n      0x40\n        /* \"#utility.yul\":3705:3758   */\n      tag_169\n        /* \"#utility.yul\":3750:3757   */\n      dup11\n        /* \"#utility.yul\":3741:3747   */\n      dup3\n        /* \"#utility.yul\":3730:3739   */\n      dup12\n        /* \"#utility.yul\":3726:3748   */\n      add\n        /* \"#utility.yul\":3705:3758   */\n      tag_89\n      jump\t// in\n    tag_169:\n        /* \"#utility.yul\":3695:3758   */\n      swap5\n      pop\n        /* \"#utility.yul\":3650:3768   */\n      pop\n        /* \"#utility.yul\":3835:3837   */\n      0x60\n        /* \"#utility.yul\":3824:3833   */\n      dup9\n        /* \"#utility.yul\":3820:3838   */\n      add\n        /* \"#utility.yul\":3807:3839   */\n      calldataload\n        /* \"#utility.yul\":3866:3884   */\n      0xffffffffffffffff\n        /* \"#utility.yul\":3858:3864   */\n      dup2\n        /* \"#utility.yul\":3855:3885   */\n      gt\n        /* \"#utility.yul\":3852:3969   */\n      iszero\n      tag_170\n      jumpi\n        /* \"#utility.yul\":3888:3967   */\n      tag_171\n      tag_76\n      jump\t// in\n    tag_171:\n        /* \"#utility.yul\":3852:3969   */\n    tag_170:\n        /* \"#utility.yul\":4001:4066   */\n      tag_172\n        /* \"#utility.yul\":4058:4065   */\n      dup11\n        /* \"#utility.yul\":4049:4055   */\n      dup3\n        /* \"#utility.yul\":4038:4047   */\n      dup12\n        /* \"#utility.yul\":4034:4056   */\n      add\n        /* \"#utility.yul\":4001:4066   */\n      tag_86\n      jump\t// in\n    tag_172:\n        /* \"#utility.yul\":3983:4066   */\n      swap4\n      pop\n      swap4\n      pop\n        /* \"#utility.yul\":3778:4076   */\n      pop\n        /* \"#utility.yul\":4115:4118   */\n      0x80\n        /* \"#utility.yul\":4142:4195   */\n      tag_173\n        /* \"#utility.yul\":4187:4194   */\n      dup11\n        /* \"#utility.yul\":4178:4184   */\n      dup3\n        /* \"#utility.yul\":4167:4176   */\n      dup12\n        /* \"#utility.yul\":4163:4185   */\n      add\n        /* \"#utility.yul\":4142:4195   */\n      tag_80\n      jump\t// in\n    tag_173:\n        /* \"#utility.yul\":4132:4195   */\n      swap2\n      pop\n        /* \"#utility.yul\":4086:4205   */\n      pop\n        /* \"#utility.yul\":2901:4212   */\n      swap3\n      swap6\n      swap9\n      swap2\n      swap5\n      swap8\n      pop\n      swap3\n      swap6\n      pop\n      jump\t// out\n        /* \"#utility.yul\":4218:4336   */\n    tag_90:\n        /* \"#utility.yul\":4305:4329   */\n      tag_175\n        /* \"#utility.yul\":4323:4328   */\n      dup2\n        /* \"#utility.yul\":4305:4329   */\n      tag_87\n      jump\t// in\n    tag_175:\n        /* \"#utility.yul\":4300:4303   */\n      dup3\n        /* \"#utility.yul\":4293:4330   */\n      mstore\n        /* \"#utility.yul\":4218:4336   */\n      pop\n      pop\n      jump\t// out\n        /* \"#utility.yul\":4342:4564   */\n    tag_20:\n        /* \"#utility.yul\":4435:4439   */\n      0x00\n        /* \"#utility.yul\":4473:4475   */\n      0x20\n        /* \"#utility.yul\":4462:4471   */\n      dup3\n        /* \"#utility.yul\":4458:4476   */\n      add\n        /* \"#utility.yul\":4450:4476   */\n      swap1\n      pop\n        /* \"#utility.yul\":4486:4557   */\n      tag_177\n        /* \"#utility.yul\":4554:4555   */\n      0x00\n        /* \"#utility.yul\":4543:4552   */\n      dup4\n        /* \"#utility.yul\":4539:4556   */\n      add\n        /* \"#utility.yul\":4530:4536   */\n      dup5\n        /* \"#utility.yul\":4486:4557   */\n      tag_90\n      jump\t// in\n    tag_177:\n        /* \"#utility.yul\":4342:4564   */\n      swap3\n      swap2\n      pop\n      pop\n      jump\t// out\n        /* \"#utility.yul\":4570:4899   */\n    tag_23:\n        /* \"#utility.yul\":4629:4635   */\n      0x00\n        /* \"#utility.yul\":4678:4680   */\n      0x20\n        /* \"#utility.yul\":4666:4675   */\n      dup3\n        /* \"#utility.yul\":4657:4664   */\n      dup5\n        /* \"#utility.yul\":4653:4676   */\n      sub\n        /* \"#utility.yul\":4649:4681   */\n      slt\n        /* \"#utility.yul\":4646:4765   */\n      iszero\n      tag_179\n      jumpi\n        /* \"#utility.yul\":4684:4763   */\n      tag_180\n      tag_75\n      jump\t// in\n    tag_180:\n        /* \"#utility.yul\":4646:4765   */\n    tag_179:\n        /* \"#utility.yul\":4804:4805   */\n      0x00\n        /* \"#utility.yul\":4829:4882   */\n      tag_181\n        /* \"#utility.yul\":4874:4881   */\n      dup5\n        /* \"#utility.yul\":4865:4871   */\n      dup3\n        /* \"#utility.yul\":4854:4863   */\n      dup6\n        /* \"#utility.yul\":4850:4872   */\n      add\n        /* \"#utility.yul\":4829:4882   */\n      tag_89\n      jump\t// in\n    tag_181:\n        /* \"#utility.yul\":4819:4882   */\n      swap2\n      pop\n        /* \"#utility.yul\":4775:4892   */\n      pop\n        /* \"#utility.yul\":4570:4899   */\n      swap3\n      swap2\n      pop\n      pop\n      jump\t// out\n        /* \"#utility.yul\":4905:5004   */\n    tag_91:\n        /* \"#utility.yul\":4957:4963   */\n      0x00\n        /* \"#utility.yul\":4991:4996   */\n      dup2\n        /* \"#utility.yul\":4985:4997   */\n      mload\n        /* \"#utility.yul\":4975:4997   */\n      swap1\n      pop\n        /* \"#utility.yul\":4905:5004   */\n      swap2\n      swap1\n      pop\n      jump\t// out\n        /* \"#utility.yul\":5010:5179   */\n    tag_92:\n        /* \"#utility.yul\":5094:5105   */\n      0x00\n        /* \"#utility.yul\":5128:5134   */\n      dup3\n        /* \"#utility.yul\":5123:5126   */\n      dup3\n        /* \"#utility.yul\":5116:5135   */\n      mstore\n        /* \"#utility.yul\":5168:5172   */\n      0x20\n        /* \"#utility.yul\":5163:5166   */\n      dup3\n        /* \"#utility.yul\":5159:5173   */\n      add\n        /* \"#utility.yul\":5144:5173   */\n      swap1\n      pop\n        /* \"#utility.yul\":5010:5179   */\n      swap3\n      swap2\n      pop\n      pop\n      jump\t// out\n        /* \"#utility.yul\":5185:5324   */\n    tag_93:\n        /* \"#utility.yul\":5274:5280   */\n      dup3\n        /* \"#utility.yul\":5269:5272   */\n      dup2\n        /* \"#utility.yul\":5264:5267   */\n      dup4\n        /* \"#utility.yul\":5258:5281   */\n      mcopy\n        /* \"#utility.yul\":5315:5316   */\n      0x00\n        /* \"#utility.yul\":5306:5312   */\n      dup4\n        /* \"#utility.yul\":5301:5304   */\n      dup4\n        /* \"#utility.yul\":5297:5313   */\n      add\n        /* \"#utility.yul\":5290:5317   */\n      mstore\n        /* \"#utility.yul\":5185:5324   */\n      pop\n      pop\n      pop\n      jump\t// out\n        /* \"#utility.yul\":5330:5432   */\n    tag_94:\n        /* \"#utility.yul\":5371:5377   */\n      0x00\n        /* \"#utility.yul\":5422:5424   */\n      0x1f\n        /* \"#utility.yul\":5418:5425   */\n      not\n        /* \"#utility.yul\":5413:5415   */\n      0x1f\n        /* \"#utility.yul\":5406:5411   */\n      dup4\n        /* \"#utility.yul\":5402:5416   */\n      add\n        /* \"#utility.yul\":5398:5426   */\n      and\n        /* \"#utility.yul\":5388:5426   */\n      swap1\n      pop\n        /* \"#utility.yul\":5330:5432   */\n      swap2\n      swap1\n      pop\n      jump\t// out\n        /* \"#utility.yul\":5438:5815   */\n    tag_95:\n        /* \"#utility.yul\":5526:5529   */\n      0x00\n        /* \"#utility.yul\":5554:5593   */\n      tag_187\n        /* \"#utility.yul\":5587:5592   */\n      dup3\n        /* \"#utility.yul\":5554:5593   */\n      tag_91\n      jump\t// in\n    tag_187:\n        /* \"#utility.yul\":5609:5680   */\n      tag_188\n        /* \"#utility.yul\":5673:5679   */\n      dup2\n        /* \"#utility.yul\":5668:5671   */\n      dup6\n        /* \"#utility.yul\":5609:5680   */\n      tag_92\n      jump\t// in\n    tag_188:\n        /* \"#utility.yul\":5602:5680   */\n      swap4\n      pop\n        /* \"#utility.yul\":5689:5754   */\n      tag_189\n        /* \"#utility.yul\":5747:5753   */\n      dup2\n        /* \"#utility.yul\":5742:5745   */\n      dup6\n        /* \"#utility.yul\":5735:5739   */\n      0x20\n        /* \"#utility.yul\":5728:5733   */\n      dup7\n        /* \"#utility.yul\":5724:5740   */\n      add\n        /* \"#utility.yul\":5689:5754   */\n      tag_93\n      jump\t// in\n    tag_189:\n        /* \"#utility.yul\":5779:5808   */\n      tag_190\n        /* \"#utility.yul\":5801:5807   */\n      dup2\n        /* \"#utility.yul\":5779:5808   */\n      tag_94\n      jump\t// in\n    tag_190:\n        /* \"#utility.yul\":5774:5777   */\n      dup5\n        /* \"#utility.yul\":5770:5809   */\n      add\n        /* \"#utility.yul\":5763:5809   */\n      swap2\n      pop\n        /* \"#utility.yul\":5530:5815   */\n      pop\n        /* \"#utility.yul\":5438:5815   */\n      swap3\n      swap2\n      pop\n      pop\n      jump\t// out\n        /* \"#utility.yul\":5821:5939   */\n    tag_96:\n        /* \"#utility.yul\":5908:5932   */\n      tag_192\n        /* \"#utility.yul\":5926:5931   */\n      dup2\n        /* \"#utility.yul\":5908:5932   */\n      tag_78\n      jump\t// in\n    tag_192:\n        /* \"#utility.yul\":5903:5906   */\n      dup3\n        /* \"#utility.yul\":5896:5933   */\n      mstore\n        /* \"#utility.yul\":5821:5939   */\n      pop\n      pop\n      jump\t// out\n        /* \"#utility.yul\":5945:6902   */\n    tag_26:\n        /* \"#utility.yul\":6218:6222   */\n      0x00\n        /* \"#utility.yul\":6256:6259   */\n      0xc0\n        /* \"#utility.yul\":6245:6254   */\n      dup3\n        /* \"#utility.yul\":6241:6260   */\n      add\n        /* \"#utility.yul\":6233:6260   */\n      swap1\n      pop\n        /* \"#utility.yul\":6270:6341   */\n      tag_194\n        /* \"#utility.yul\":6338:6339   */\n      0x00\n        /* \"#utility.yul\":6327:6336   */\n      dup4\n        /* \"#utility.yul\":6323:6340   */\n      add\n        /* \"#utility.yul\":6314:6320   */\n      dup10\n        /* \"#utility.yul\":6270:6341   */\n      tag_90\n      jump\t// in\n    tag_194:\n        /* \"#utility.yul\":6388:6397   */\n      dup2\n        /* \"#utility.yul\":6382:6386   */\n      dup2\n        /* \"#utility.yul\":6378:6398   */\n      sub\n        /* \"#utility.yul\":6373:6375   */\n      0x20\n        /* \"#utility.yul\":6362:6371   */\n      dup4\n        /* \"#utility.yul\":6358:6376   */\n      add\n        /* \"#utility.yul\":6351:6399   */\n      mstore\n        /* \"#utility.yul\":6416:6494   */\n      tag_195\n        /* \"#utility.yul\":6489:6493   */\n      dup2\n        /* \"#utility.yul\":6480:6486   */\n      dup9\n        /* \"#utility.yul\":6416:6494   */\n      tag_95\n      jump\t// in\n    tag_195:\n        /* \"#utility.yul\":6408:6494   */\n      swap1\n      pop\n        /* \"#utility.yul\":6504:6576   */\n      tag_196\n        /* \"#utility.yul\":6572:6574   */\n      0x40\n        /* \"#utility.yul\":6561:6570   */\n      dup4\n        /* \"#utility.yul\":6557:6575   */\n      add\n        /* \"#utility.yul\":6548:6554   */\n      dup8\n        /* \"#utility.yul\":6504:6576   */\n      tag_90\n      jump\t// in\n    tag_196:\n        /* \"#utility.yul\":6586:6658   */\n      tag_197\n        /* \"#utility.yul\":6654:6656   */\n      0x60\n        /* \"#utility.yul\":6643:6652   */\n      dup4\n        /* \"#utility.yul\":6639:6657   */\n      add\n        /* \"#utility.yul\":6630:6636   */\n      dup7\n        /* \"#utility.yul\":6586:6658   */\n      tag_90\n      jump\t// in\n    tag_197:\n        /* \"#utility.yul\":6706:6715   */\n      dup2\n        /* \"#utility.yul\":6700:6704   */\n      dup2\n        /* \"#utility.yul\":6696:6716   */\n      sub\n        /* \"#utility.yul\":6690:6693   */\n      0x80\n        /* \"#utility.yul\":6679:6688   */\n      dup4\n        /* \"#utility.yul\":6675:6694   */\n      add\n        /* \"#utility.yul\":6668:6717   */\n      mstore\n        /* \"#utility.yul\":6734:6812   */\n      tag_198\n        /* \"#utility.yul\":6807:6811   */\n      dup2\n        /* \"#utility.yul\":6798:6804   */\n      dup6\n        /* \"#utility.yul\":6734:6812   */\n      tag_95\n      jump\t// in\n    tag_198:\n        /* \"#utility.yul\":6726:6812   */\n      swap1\n      pop\n        /* \"#utility.yul\":6822:6895   */\n      tag_199\n        /* \"#utility.yul\":6890:6893   */\n      0xa0\n        /* \"#utility.yul\":6879:6888   */\n      dup4\n        /* \"#utility.yul\":6875:6894   */\n      add\n        /* \"#utility.yul\":6866:6872   */\n      dup5\n        /* \"#utility.yul\":6822:6895   */\n      tag_96\n      jump\t// in\n    tag_199:\n        /* \"#utility.yul\":5945:6902   */\n      swap8\n      swap7\n      pop\n      pop\n      pop\n      pop\n      pop\n      pop\n      pop\n      jump\t// out\n        /* \"#utility.yul\":6908:7130   */\n    tag_30:\n        /* \"#utility.yul\":7001:7005   */\n      0x00\n        /* \"#utility.yul\":7039:7041   */\n      0x20\n        /* \"#utility.yul\":7028:7037   */\n      dup3\n        /* \"#utility.yul\":7024:7042   */\n      add\n        /* \"#utility.yul\":7016:7042   */\n      swap1\n      pop\n        /* \"#utility.yul\":7052:7123   */\n      tag_201\n        /* \"#utility.yul\":7120:7121   */\n      0x00\n        /* \"#utility.yul\":7109:7118   */\n      dup4\n        /* \"#utility.yul\":7105:7122   */\n      add\n        /* \"#utility.yul\":7096:7102   */\n      dup5\n        /* \"#utility.yul\":7052:7123   */\n      tag_96\n      jump\t// in\n    tag_201:\n        /* \"#utility.yul\":6908:7130   */\n      swap3\n      swap2\n      pop\n      pop\n      jump\t// out\n        /* \"#utility.yul\":7136:7367   */\n    tag_97:\n        /* \"#utility.yul\":7276:7310   */\n      0x4172746947616d653a204f6e6c7920626c61636b736d697468206f72206f776e\n        /* \"#utility.yul\":7272:7273   */\n      0x00\n        /* \"#utility.yul\":7264:7270   */\n      dup3\n        /* \"#utility.yul\":7260:7274   */\n      add\n        /* \"#utility.yul\":7253:7311   */\n      mstore\n        /* \"#utility.yul\":7345:7359   */\n      0x65722063616e2063726166740000000000000000000000000000000000000000\n        /* \"#utility.yul\":7340:7342   */\n      0x20\n        /* \"#utility.yul\":7332:7338   */\n      dup3\n        /* \"#utility.yul\":7328:7343   */\n      add\n        /* \"#utility.yul\":7321:7360   */\n      mstore\n        /* \"#utility.yul\":7136:7367   */\n      pop\n      jump\t// out\n        /* \"#utility.yul\":7373:7739   */\n    tag_98:\n        /* \"#utility.yul\":7515:7518   */\n      0x00\n        /* \"#utility.yul\":7536:7603   */\n      tag_204\n        /* \"#utility.yul\":7600:7602   */\n      0x2c\n        /* \"#utility.yul\":7595:7598   */\n      dup4\n        /* \"#utility.yul\":7536:7603   */\n      tag_92\n      jump\t// in\n    tag_204:\n        /* \"#utility.yul\":7529:7603   */\n      swap2\n      pop\n        /* \"#utility.yul\":7612:7705   */\n      tag_205\n        /* \"#utility.yul\":7701:7704   */\n      dup3\n        /* \"#utility.yul\":7612:7705   */\n      tag_97\n      jump\t// in\n    tag_205:\n        /* \"#utility.yul\":7730:7732   */\n      0x40\n        /* \"#utility.yul\":7725:7728   */\n      dup3\n        /* \"#utility.yul\":7721:7733   */\n      add\n        /* \"#utility.yul\":7714:7733   */\n      swap1\n      pop\n        /* \"#utility.yul\":7373:7739   */\n      swap2\n      swap1\n      pop\n      jump\t// out\n        /* \"#utility.yul\":7745:8164   */\n    tag_42:\n        /* \"#utility.yul\":7911:7915   */\n      0x00\n        /* \"#utility.yul\":7949:7951   */\n      0x20\n        /* \"#utility.yul\":7938:7947   */\n      dup3\n        /* \"#utility.yul\":7934:7952   */\n      add\n        /* \"#utility.yul\":7926:7952   */\n      swap1\n      pop\n        /* \"#utility.yul\":7998:8007   */\n      dup2\n        /* \"#utility.yul\":7992:7996   */\n      dup2\n        /* \"#utility.yul\":7988:8008   */\n      sub\n        /* \"#utility.yul\":7984:7985   */\n      0x00\n        /* \"#utility.yul\":7973:7982   */\n      dup4\n        /* \"#utility.yul\":7969:7986   */\n      add\n        /* \"#utility.yul\":7962:8009   */\n      mstore\n        /* \"#utility.yul\":8026:8157   */\n      tag_207\n        /* \"#utility.yul\":8152:8156   */\n      dup2\n        /* \"#utility.yul\":8026:8157   */\n      tag_98\n      jump\t// in\n    tag_207:\n        /* \"#utility.yul\":8018:8157   */\n      swap1\n      pop\n        /* \"#utility.yul\":7745:8164   */\n      swap2\n      swap1\n      pop\n      jump\t// out\n        /* \"#utility.yul\":8170:8395   */\n    tag_99:\n        /* \"#utility.yul\":8310:8344   */\n      0x4172746947616d653a2043616e6e6f7420637261667420746f207a65726f2061\n        /* \"#utility.yul\":8306:8307   */\n      0x00\n        /* \"#utility.yul\":8298:8304   */\n      dup3\n        /* \"#utility.yul\":8294:8308   */\n      add\n        /* \"#utility.yul\":8287:8345   */\n      mstore\n        /* \"#utility.yul\":8379:8387   */\n      0x6464726573730000000000000000000000000000000000000000000000000000\n        /* \"#utility.yul\":8374:8376   */\n      0x20\n        /* \"#utility.yul\":8366:8372   */\n      dup3\n        /* \"#utility.yul\":8362:8377   */\n      add\n        /* \"#utility.yul\":8355:8388   */\n      mstore\n        /* \"#utility.yul\":8170:8395   */\n      pop\n      jump\t// out\n        /* \"#utility.yul\":8401:8767   */\n    tag_100:\n        /* \"#utility.yul\":8543:8546   */\n      0x00\n        /* \"#utility.yul\":8564:8631   */\n      tag_210\n        /* \"#utility.yul\":8628:8630   */\n      0x26\n        /* \"#utility.yul\":8623:8626   */\n      dup4\n        /* \"#utility.yul\":8564:8631   */\n      tag_92\n      jump\t// in\n    tag_210:\n        /* \"#utility.yul\":8557:8631   */\n      swap2\n      pop\n        /* \"#utility.yul\":8640:8733   */\n      tag_211\n        /* \"#utility.yul\":8729:8732   */\n      dup3\n        /* \"#utility.yul\":8640:8733   */\n      tag_99\n      jump\t// in\n    tag_211:\n        /* \"#utility.yul\":8758:8760   */\n      0x40\n        /* \"#utility.yul\":8753:8756   */\n      dup3\n        /* \"#utility.yul\":8749:8761   */\n      add\n        /* \"#utility.yul\":8742:8761   */\n      swap1\n      pop\n        /* \"#utility.yul\":8401:8767   */\n      swap2\n      swap1\n      pop\n      jump\t// out\n        /* \"#utility.yul\":8773:9192   */\n    tag_46:\n        /* \"#utility.yul\":8939:8943   */\n      0x00\n        /* \"#utility.yul\":8977:8979   */\n      0x20\n        /* \"#utility.yul\":8966:8975   */\n      dup3\n        /* \"#utility.yul\":8962:8980   */\n      add\n        /* \"#utility.yul\":8954:8980   */\n      swap1\n      pop\n        /* \"#utility.yul\":9026:9035   */\n      dup2\n        /* \"#utility.yul\":9020:9024   */\n      dup2\n        /* \"#utility.yul\":9016:9036   */\n      sub\n        /* \"#utility.yul\":9012:9013   */\n      0x00\n        /* \"#utility.yul\":9001:9010   */\n      dup4\n        /* \"#utility.yul\":8997:9014   */\n      add\n        /* \"#utility.yul\":8990:9037   */\n      mstore\n        /* \"#utility.yul\":9054:9185   */\n      tag_213\n        /* \"#utility.yul\":9180:9184   */\n      dup2\n        /* \"#utility.yul\":9054:9185   */\n      tag_100\n      jump\t// in\n    tag_213:\n        /* \"#utility.yul\":9046:9185   */\n      swap1\n      pop\n        /* \"#utility.yul\":8773:9192   */\n      swap2\n      swap1\n      pop\n      jump\t// out\n        /* \"#utility.yul\":9198:9378   */\n    tag_101:\n        /* \"#utility.yul\":9246:9323   */\n      0x4e487b7100000000000000000000000000000000000000000000000000000000\n        /* \"#utility.yul\":9243:9244   */\n      0x00\n        /* \"#utility.yul\":9236:9324   */\n      mstore\n        /* \"#utility.yul\":9343:9347   */\n      0x11\n        /* \"#utility.yul\":9340:9341   */\n      0x04\n        /* \"#utility.yul\":9333:9348   */\n      mstore\n        /* \"#utility.yul\":9367:9371   */\n      0x24\n        /* \"#utility.yul\":9364:9365   */\n      0x00\n        /* \"#utility.yul\":9357:9372   */\n      revert\n        /* \"#utility.yul\":9384:9617   */\n    tag_48:\n        /* \"#utility.yul\":9423:9426   */\n      0x00\n        /* \"#utility.yul\":9446:9470   */\n      tag_216\n        /* \"#utility.yul\":9464:9469   */\n      dup3\n        /* \"#utility.yul\":9446:9470   */\n      tag_87\n      jump\t// in\n    tag_216:\n        /* \"#utility.yul\":9437:9470   */\n      swap2\n      pop\n        /* \"#utility.yul\":9492:9558   */\n      0xffffffffffffffffffffffffffffffffffffffffffffffffffffffffffffffff\n        /* \"#utility.yul\":9485:9490   */\n      dup3\n        /* \"#utility.yul\":9482:9559   */\n      sub\n        /* \"#utility.yul\":9479:9582   */\n      tag_217\n      jumpi\n        /* \"#utility.yul\":9562:9580   */\n      tag_218\n      tag_101\n      jump\t// in\n    tag_218:\n        /* \"#utility.yul\":9479:9582   */\n    tag_217:\n        /* \"#utility.yul\":9609:9610   */\n      0x01\n        /* \"#utility.yul\":9602:9607   */\n      dup3\n        /* \"#utility.yul\":9598:9611   */\n      add\n        /* \"#utility.yul\":9591:9611   */\n      swap1\n      pop\n        /* \"#utility.yul\":9384:9617   */\n      swap2\n      swap1\n      pop\n      jump\t// out\n        /* \"#utility.yul\":9623:9803   */\n    tag_102:\n        /* \"#utility.yul\":9671:9748   */\n      0x4e487b7100000000000000000000000000000000000000000000000000000000\n        /* \"#utility.yul\":9668:9669   */\n      0x00\n        /* \"#utility.yul\":9661:9749   */\n      mstore\n        /* \"#utility.yul\":9768:9772   */\n      0x41\n        /* \"#utility.yul\":9765:9766   */\n      0x04\n        /* \"#utility.yul\":9758:9773   */\n      mstore\n        /* \"#utility.yul\":9792:9796   */\n      0x24\n        /* \"#utility.yul\":9789:9790   */\n      0x00\n        /* \"#utility.yul\":9782:9797   */\n      revert\n        /* \"#utility.yul\":9809:9989   */\n    tag_103:\n        /* \"#utility.yul\":9857:9934   */\n      0x4e487b7100000000000000000000000000000000000000000000000000000000\n        /* \"#utility.yul\":9854:9855   */\n      0x00\n        /* \"#utility.yul\":9847:9935   */\n      mstore\n        /* \"#utility.yul\":9954:9958   */\n      0x22\n        /* \"#utility.yul\":9951:9952   */\n      0x04\n        /* \"#utility.yul\":9944:9959   */\n      mstore\n        /* \"#utility.yul\":9978:9982   */\n      0x24\n        /* \"#utility.yul\":9975:9976   */\n      0x00\n        /* \"#utility.yul\":9968:9983   */\n      revert\n        /* \"#utility.yul\":9995:10315   */\n    tag_53:\n        /* \"#utility.yul\":10039:10045   */\n      0x00\n        /* \"#utility.yul\":10076:10077   */\n      0x02\n        /* \"#utility.yul\":10070:10074   */\n      dup3\n        /* \"#utility.yul\":10066:10078   */\n      div\n        /* \"#utility.yul\":10056:10078   */\n      swap1\n      pop\n        /* \"#utility.yul\":10123:10124   */\n      0x01\n        /* \"#utility.yul\":10117:10121   */\n      dup3\n        /* \"#utility.yul\":10113:10125   */\n      and\n        /* \"#utility.yul\":10144:10162   */\n      dup1\n        /* \"#utility.yul\":10134:10215   */\n      tag_222\n      jumpi\n        /* \"#utility.yul\":10200:10204   */\n      0x7f\n        /* \"#utility.yul\":10192:10198   */\n      dup3\n        /* \"#utility.yul\":10188:10205   */\n      and\n        /* \"#utility.yul\":10178:10205   */\n      swap2\n      pop\n        /* \"#utility.yul\":10134:10215   */\n    tag_222:\n        /* \"#utility.yul\":10262:10264   */\n      0x20\n        /* \"#utility.yul\":10254:10260   */\n      dup3\n        /* \"#utility.yul\":10251:10265   */\n      lt\n        /* \"#utility.yul\":10231:10249   */\n      dup2\n        /* \"#utility.yul\":10228:10266   */\n      sub\n        /* \"#utility.yul\":10225:10309   */\n      tag_223\n      jumpi\n        /* \"#utility.yul\":10281:10299   */\n      tag_224\n      tag_103\n      jump\t// in\n    tag_224:\n        /* \"#utility.yul\":10225:10309   */\n    tag_223:\n        /* \"#utility.yul\":10046:10315   */\n      pop\n        /* \"#utility.yul\":9995:10315   */\n      swap2\n      swap1\n      pop\n      jump\t// out\n        /* \"#utility.yul\":10321:10462   */\n    tag_104:\n        /* \"#utility.yul\":10370:10374   */\n      0x00\n        /* \"#utility.yul\":10393:10396   */\n      dup2\n        /* \"#utility.yul\":10385:10396   */\n      swap1\n      pop\n        /* \"#utility.yul\":10416:10419   */\n      dup2\n        /* \"#utility.yul\":10413:10414   */\n      0x00\n        /* \"#utility.yul\":10406:10420   */\n      mstore\n        /* \"#utility.yul\":10450:10454   */\n      0x20\n        /* \"#utility.yul\":10447:10448   */\n      0x00\n        /* \"#utility.yul\":10437:10455   */\n      keccak256\n        /* \"#utility.yul\":10429:10455   */\n      swap1\n      pop\n        /* \"#utility.yul\":10321:10462   */\n      swap2\n      swap1\n      pop\n      jump\t// out\n        /* \"#utility.yul\":10468:10561   */\n    tag_105:\n        /* \"#utility.yul\":10505:10511   */\n      0x00\n        /* \"#utility.yul\":10552:10554   */\n      0x20\n        /* \"#utility.yul\":10547:10549   */\n      0x1f\n        /* \"#utility.yul\":10540:10545   */\n      dup4\n        /* \"#utility.yul\":10536:10550   */\n      add\n        /* \"#utility.yul\":10532:10555   */\n      div\n        /* \"#utility.yul\":10522:10555   */\n      swap1\n      pop\n        /* \"#utility.yul\":10468:10561   */\n      swap2\n      swap1\n      pop\n      jump\t// out\n        /* \"#utility.yul\":10567:10674   */\n    tag_106:\n        /* \"#utility.yul\":10611:10619   */\n      0x00\n        /* \"#utility.yul\":10661:10666   */\n      dup3\n        /* \"#utility.yul\":10655:10659   */\n      dup3\n        /* \"#utility.yul\":10651:10667   */\n      shl\n        /* \"#utility.yul\":10630:10667   */\n      swap1\n      pop\n        /* \"#utility.yul\":10567:10674   */\n      swap3\n      swap2\n      pop\n      pop\n      jump\t// out\n        /* \"#utility.yul\":10680:11073   */\n    tag_107:\n        /* \"#utility.yul\":10749:10755   */\n      0x00\n        /* \"#utility.yul\":10799:10800   */\n      0x08\n        /* \"#utility.yul\":10787:10797   */\n      dup4\n        /* \"#utility.yul\":10783:10801   */\n      mul\n        /* \"#utility.yul\":10822:10919   */\n      tag_229\n        /* \"#utility.yul\":10852:10918   */\n      0xffffffffffffffffffffffffffffffffffffffffffffffffffffffffffffffff\n        /* \"#utility.yul\":10841:10850   */\n      dup3\n        /* \"#utility.yul\":10822:10919   */\n      tag_106\n      jump\t// in\n    tag_229:\n        /* \"#utility.yul\":10940:10979   */\n      tag_230\n        /* \"#utility.yul\":10970:10978   */\n      dup7\n        /* \"#utility.yul\":10959:10968   */\n      dup4\n        /* \"#utility.yul\":10940:10979   */\n      tag_106\n      jump\t// in\n    tag_230:\n        /* \"#utility.yul\":10928:10979   */\n      swap6\n      pop\n        /* \"#utility.yul\":11012:11016   */\n      dup1\n        /* \"#utility.yul\":11008:11017   */\n      not\n        /* \"#utility.yul\":11001:11006   */\n      dup5\n        /* \"#utility.yul\":10997:11018   */\n      and\n        /* \"#utility.yul\":10988:11018   */\n      swap4\n      pop\n        /* \"#utility.yul\":11061:11065   */\n      dup1\n        /* \"#utility.yul\":11051:11059   */\n      dup7\n        /* \"#utility.yul\":11047:11066   */\n      and\n        /* \"#utility.yul\":11040:11045   */\n      dup5\n        /* \"#utility.yul\":11037:11067   */\n      or\n        /* \"#utility.yul\":11027:11067   */\n      swap3\n      pop\n        /* \"#utility.yul\":10756:11073   */\n      pop\n      pop\n        /* \"#utility.yul\":10680:11073   */\n      swap4\n      swap3\n      pop\n      pop\n      pop\n      jump\t// out\n        /* \"#utility.yul\":11079:11139   */\n    tag_108:\n        /* \"#utility.yul\":11107:11110   */\n      0x00\n        /* \"#utility.yul\":11128:11133   */\n      dup2\n        /* \"#utility.yul\":11121:11133   */\n      swap1\n      pop\n        /* \"#utility.yul\":11079:11139   */\n      swap2\n      swap1\n      pop\n      jump\t// out\n        /* \"#utility.yul\":11145:11287   */\n    tag_109:\n        /* \"#utility.yul\":11195:11204   */\n      0x00\n        /* \"#utility.yul\":11228:11281   */\n      tag_233\n        /* \"#utility.yul\":11246:11280   */\n      tag_234\n        /* \"#utility.yul\":11255:11279   */\n      tag_235\n        /* \"#utility.yul\":11273:11278   */\n      dup5\n        /* \"#utility.yul\":11255:11279   */\n      tag_87\n      jump\t// in\n    tag_235:\n        /* \"#utility.yul\":11246:11280   */\n      tag_108\n      jump\t// in\n    tag_234:\n        /* \"#utility.yul\":11228:11281   */\n      tag_87\n      jump\t// in\n    tag_233:\n        /* \"#utility.yul\":11215:11281   */\n      swap1\n      pop\n        /* \"#utility.yul\":11145:11287   */\n      swap2\n      swap1\n      pop\n      jump\t// out\n        /* \"#utility.yul\":11293:11368   */\n    tag_110:\n        /* \"#utility.yul\":11336:11339   */\n      0x00\n        /* \"#utility.yul\":11357:11362   */\n      dup2\n        /* \"#utility.yul\":11350:11362   */\n      swap1\n      pop\n        /* \"#utility.yul\":11293:11368   */\n      swap2\n      swap1\n      pop\n      jump\t// out\n        /* \"#utility.yul\":11374:11643   */\n    tag_111:\n        /* \"#utility.yul\":11484:11523   */\n      tag_238\n        /* \"#utility.yul\":11515:11522   */\n      dup4\n        /* \"#utility.yul\":11484:11523   */\n      tag_109\n      jump\t// in\n    tag_238:\n        /* \"#utility.yul\":11545:11636   */\n      tag_239\n        /* \"#utility.yul\":11594:11635   */\n      tag_240\n        /* \"#utility.yul\":11618:11634   */\n      dup3\n        /* \"#utility.yul\":11594:11635   */\n      tag_110\n      jump\t// in\n    tag_240:\n        /* \"#utility.yul\":11586:11592   */\n      dup5\n        /* \"#utility.yul\":11579:11583   */\n      dup5\n        /* \"#utility.yul\":11573:11584   */\n      sload\n        /* \"#utility.yul\":11545:11636   */\n      tag_107\n      jump\t// in\n    tag_239:\n        /* \"#utility.yul\":11539:11543   */\n      dup3\n        /* \"#utility.yul\":11532:11637   */\n      sstore\n        /* \"#utility.yul\":11450:11643   */\n      pop\n        /* \"#utility.yul\":11374:11643   */\n      pop\n      pop\n      pop\n      jump\t// out\n        /* \"#utility.yul\":11649:11722   */\n    tag_112:\n        /* \"#utility.yul\":11694:11697   */\n      0x00\n        /* \"#utility.yul\":11715:11716   */\n      0x00\n        /* \"#utility.yul\":11708:11716   */\n      swap1\n      pop\n        /* \"#utility.yul\":11649:11722   */\n      swap1\n      jump\t// out\n        /* \"#utility.yul\":11728:11917   */\n    tag_113:\n        /* \"#utility.yul\":11805:11837   */\n      tag_243\n      tag_112\n      jump\t// in\n    tag_243:\n        /* \"#utility.yul\":11846:11911   */\n      tag_244\n        /* \"#utility.yul\":11904:11910   */\n      dup2\n        /* \"#utility.yul\":11896:11902   */\n      dup5\n        /* \"#utility.yul\":11890:11894   */\n      dup5\n        /* \"#utility.yul\":11846:11911   */\n      tag_111\n      jump\t// in\n    tag_244:\n        /* \"#utility.yul\":11781:11917   */\n      pop\n        /* \"#utility.yul\":11728:11917   */\n      pop\n      pop\n      jump\t// out\n        /* \"#utility.yul\":11923:12109   */\n    tag_114:\n        /* \"#utility.yul\":11983:12103   */\n    tag_246:\n        /* \"#utility.yul\":12000:12003   */\n      dup2\n        /* \"#utility.yul\":11993:11998   */\n      dup2\n        /* \"#utility.yul\":11990:12004   */\n      lt\n        /* \"#utility.yul\":11983:12103   */\n      iszero\n      tag_248\n      jumpi\n        /* \"#utility.yul\":12054:12093   */\n      tag_249\n        /* \"#utility.yul\":12091:12092   */\n      0x00\n        /* \"#utility.yul\":12084:12089   */\n      dup3\n        /* \"#utility.yul\":12054:12093   */\n      tag_113\n      jump\t// in\n    tag_249:\n        /* \"#utility.yul\":12027:12028   */\n      0x01\n        /* \"#utility.yul\":12020:12025   */\n      dup2\n        /* \"#utility.yul\":12016:12029   */\n      add\n        /* \"#utility.yul\":12007:12029   */\n      swap1\n      pop\n        /* \"#utility.yul\":11983:12103   */\n      jump(tag_246)\n    tag_248:\n        /* \"#utility.yul\":11923:12109   */\n      pop\n      pop\n      jump\t// out\n        /* \"#utility.yul\":12115:12658   */\n    tag_115:\n        /* \"#utility.yul\":12216:12218   */\n      0x1f\n        /* \"#utility.yul\":12211:12214   */\n      dup3\n        /* \"#utility.yul\":12208:12219   */\n      gt\n        /* \"#utility.yul\":12205:12651   */\n      iszero\n      tag_251\n      jumpi\n        /* \"#utility.yul\":12250:12288   */\n      tag_252\n        /* \"#utility.yul\":12282:12287   */\n      dup2\n        /* \"#utility.yul\":12250:12288   */\n      tag_104\n      jump\t// in\n    tag_252:\n        /* \"#utility.yul\":12334:12363   */\n      tag_253\n        /* \"#utility.yul\":12352:12362   */\n      dup5\n        /* \"#utility.yul\":12334:12363   */\n      tag_105\n      jump\t// in\n    tag_253:\n        /* \"#utility.yul\":12324:12332   */\n      dup2\n        /* \"#utility.yul\":12320:12364   */\n      add\n        /* \"#utility.yul\":12517:12519   */\n      0x20\n        /* \"#utility.yul\":12505:12515   */\n      dup6\n        /* \"#utility.yul\":12502:12520   */\n      lt\n        /* \"#utility.yul\":12499:12548   */\n      iszero\n      tag_254\n      jumpi\n        /* \"#utility.yul\":12538:12546   */\n      dup2\n        /* \"#utility.yul\":12523:12546   */\n      swap1\n      pop\n        /* \"#utility.yul\":12499:12548   */\n    tag_254:\n        /* \"#utility.yul\":12561:12641   */\n      tag_255\n        /* \"#utility.yul\":12617:12639   */\n      tag_256\n        /* \"#utility.yul\":12635:12638   */\n      dup6\n        /* \"#utility.yul\":12617:12639   */\n      tag_105\n      jump\t// in\n    tag_256:\n        /* \"#utility.yul\":12607:12615   */\n      dup4\n        /* \"#utility.yul\":12603:12640   */\n      add\n        /* \"#utility.yul\":12590:12601   */\n      dup3\n        /* \"#utility.yul\":12561:12641   */\n      tag_114\n      jump\t// in\n    tag_255:\n        /* \"#utility.yul\":12220:12651   */\n      pop\n      pop\n        /* \"#utility.yul\":12205:12651   */\n    tag_251:\n        /* \"#utility.yul\":12115:12658   */\n      pop\n      pop\n      pop\n      jump\t// out\n        /* \"#utility.yul\":12664:12781   */\n    tag_116:\n        /* \"#utility.yul\":12718:12726   */\n      0x00\n        /* \"#utility.yul\":12768:12773   */\n      dup3\n        /* \"#utility.yul\":12762:12766   */\n      dup3\n        /* \"#utility.yul\":12758:12774   */\n      shr\n        /* \"#utility.yul\":12737:12774   */\n      swap1\n      pop\n        /* \"#utility.yul\":12664:12781   */\n      swap3\n      swap2\n      pop\n      pop\n      jump\t// out\n        /* \"#utility.yul\":12787:12956   */\n    tag_117:\n        /* \"#utility.yul\":12831:12837   */\n      0x00\n        /* \"#utility.yul\":12864:12915   */\n      tag_259\n        /* \"#utility.yul\":12912:12913   */\n      0x00\n        /* \"#utility.yul\":12908:12914   */\n      not\n        /* \"#utility.yul\":12900:12905   */\n      dup5\n        /* \"#utility.yul\":12897:12898   */\n      0x08\n        /* \"#utility.yul\":12893:12906   */\n      mul\n        /* \"#utility.yul\":12864:12915   */\n      tag_116\n      jump\t// in\n    tag_259:\n        /* \"#utility.yul\":12860:12916   */\n      not\n        /* \"#utility.yul\":12945:12949   */\n      dup1\n        /* \"#utility.yul\":12939:12943   */\n      dup4\n        /* \"#utility.yul\":12935:12950   */\n      and\n        /* \"#utility.yul\":12925:12950   */\n      swap2\n      pop\n        /* \"#utility.yul\":12838:12956   */\n      pop\n        /* \"#utility.yul\":12787:12956   */\n      swap3\n      swap2\n      pop\n      pop\n      jump\t// out\n        /* \"#utility.yul\":12961:13256   */\n    tag_118:\n        /* \"#utility.yul\":13037:13041   */\n      0x00\n        /* \"#utility.yul\":13183:13212   */\n      tag_261\n        /* \"#utility.yul\":13208:13211   */\n      dup4\n        /* \"#utility.yul\":13202:13206   */\n      dup4\n        /* \"#utility.yul\":13183:13212   */\n      tag_117\n      jump\t// in\n    tag_261:\n        /* \"#utility.yul\":13175:13212   */\n      swap2\n      pop\n        /* \"#utility.yul\":13245:13248   */\n      dup3\n        /* \"#utility.yul\":13242:13243   */\n      0x02\n        /* \"#utility.yul\":13238:13249   */\n      mul\n        /* \"#utility.yul\":13232:13236   */\n      dup3\n        /* \"#utility.yul\":13229:13250   */\n      or\n        /* \"#utility.yul\":13221:13250   */\n      swap1\n      pop\n        /* \"#utility.yul\":12961:13256   */\n      swap3\n      swap2\n      pop\n      pop\n      jump\t// out\n        /* \"#utility.yul\":13261:14656   */\n    tag_50:\n        /* \"#utility.yul\":13378:13415   */\n      tag_263\n        /* \"#utility.yul\":13411:13414   */\n      dup3\n        /* \"#utility.yul\":13378:13415   */\n      tag_91\n      jump\t// in\n    tag_263:\n        /* \"#utility.yul\":13480:13498   */\n      0xffffffffffffffff\n        /* \"#utility.yul\":13472:13478   */\n      dup2\n        /* \"#utility.yul\":13469:13499   */\n      gt\n        /* \"#utility.yul\":13466:13522   */\n      iszero\n      tag_264\n      jumpi\n        /* \"#utility.yul\":13502:13520   */\n      tag_265\n      tag_102\n      jump\t// in\n    tag_265:\n        /* \"#utility.yul\":13466:13522   */\n    tag_264:\n        /* \"#utility.yul\":13546:13584   */\n      tag_266\n        /* \"#utility.yul\":13578:13582   */\n      dup3\n        /* \"#utility.yul\":13572:13583   */\n      sload\n        /* \"#utility.yul\":13546:13584   */\n      tag_53\n      jump\t// in\n    tag_266:\n        /* \"#utility.yul\":13631:13698   */\n      tag_267\n        /* \"#utility.yul\":13691:13697   */\n      dup3\n        /* \"#utility.yul\":13683:13689   */\n      dup3\n        /* \"#utility.yul\":13677:13681   */\n      dup6\n        /* \"#utility.yul\":13631:13698   */\n      tag_115\n      jump\t// in\n    tag_267:\n        /* \"#utility.yul\":13725:13726   */\n      0x00\n        /* \"#utility.yul\":13749:13753   */\n      0x20\n        /* \"#utility.yul\":13736:13753   */\n      swap1\n      pop\n        /* \"#utility.yul\":13781:13783   */\n      0x1f\n        /* \"#utility.yul\":13773:13779   */\n      dup4\n        /* \"#utility.yul\":13770:13784   */\n      gt\n        /* \"#utility.yul\":13798:13799   */\n      0x01\n        /* \"#utility.yul\":13793:14411   */\n      dup2\n      eq\n      tag_269\n      jumpi\n        /* \"#utility.yul\":14455:14456   */\n      0x00\n        /* \"#utility.yul\":14472:14478   */\n      dup5\n        /* \"#utility.yul\":14469:14546   */\n      iszero\n      tag_270\n      jumpi\n        /* \"#utility.yul\":14521:14530   */\n      dup3\n        /* \"#utility.yul\":14516:14519   */\n      dup8\n        /* \"#utility.yul\":14512:14531   */\n      add\n        /* \"#utility.yul\":14506:14532   */\n      mload\n        /* \"#utility.yul\":14497:14532   */\n      swap1\n      pop\n        /* \"#utility.yul\":14469:14546   */\n    tag_270:\n        /* \"#utility.yul\":14572:14639   */\n      tag_271\n        /* \"#utility.yul\":14632:14638   */\n      dup6\n        /* \"#utility.yul\":14625:14630   */\n      dup3\n        /* \"#utility.yul\":14572:14639   */\n      tag_118\n      jump\t// in\n    tag_271:\n        /* \"#utility.yul\":14566:14570   */\n      dup7\n        /* \"#utility.yul\":14559:14640   */\n      sstore\n        /* \"#utility.yul\":14428:14650   */\n      pop\n        /* \"#utility.yul\":13763:14650   */\n      jump(tag_268)\n        /* \"#utility.yul\":13793:14411   */\n    tag_269:\n        /* \"#utility.yul\":13845:13849   */\n      0x1f\n        /* \"#utility.yul\":13841:13850   */\n      not\n        /* \"#utility.yul\":13833:13839   */\n      dup5\n        /* \"#utility.yul\":13829:13851   */\n      and\n        /* \"#utility.yul\":13879:13916   */\n      tag_272\n        /* \"#utility.yul\":13911:13915   */\n      dup7\n        /* \"#utility.yul\":13879:13916   */\n      tag_104\n      jump\t// in\n    tag_272:\n        /* \"#utility.yul\":13938:13939   */\n      0x00\n        /* \"#utility.yul\":13952:14160   */\n    tag_273:\n        /* \"#utility.yul\":13966:13973   */\n      dup3\n        /* \"#utility.yul\":13963:13964   */\n      dup2\n        /* \"#utility.yul\":13960:13974   */\n      lt\n        /* \"#utility.yul\":13952:14160   */\n      iszero\n      tag_275\n      jumpi\n        /* \"#utility.yul\":14045:14054   */\n      dup5\n        /* \"#utility.yul\":14040:14043   */\n      dup10\n        /* \"#utility.yul\":14036:14055   */\n      add\n        /* \"#utility.yul\":14030:14056   */\n      mload\n        /* \"#utility.yul\":14022:14028   */\n      dup3\n        /* \"#utility.yul\":14015:14057   */\n      sstore\n        /* \"#utility.yul\":14096:14097   */\n      0x01\n        /* \"#utility.yul\":14088:14094   */\n      dup3\n        /* \"#utility.yul\":14084:14098   */\n      add\n        /* \"#utility.yul\":14074:14098   */\n      swap2\n      pop\n        /* \"#utility.yul\":14143:14145   */\n      0x20\n        /* \"#utility.yul\":14132:14141   */\n      dup6\n        /* \"#utility.yul\":14128:14146   */\n      add\n        /* \"#utility.yul\":14115:14146   */\n      swap5\n      pop\n        /* \"#utility.yul\":13989:13993   */\n      0x20\n        /* \"#utility.yul\":13986:13987   */\n      dup2\n        /* \"#utility.yul\":13982:13994   */\n      add\n        /* \"#utility.yul\":13977:13994   */\n      swap1\n      pop\n        /* \"#utility.yul\":13952:14160   */\n      jump(tag_273)\n    tag_275:\n        /* \"#utility.yul\":14188:14194   */\n      dup7\n        /* \"#utility.yul\":14179:14186   */\n      dup4\n        /* \"#utility.yul\":14176:14195   */\n      lt\n        /* \"#utility.yul\":14173:14352   */\n      iszero\n      tag_276\n      jumpi\n        /* \"#utility.yul\":14246:14255   */\n      dup5\n        /* \"#utility.yul\":14241:14244   */\n      dup10\n        /* \"#utility.yul\":14237:14256   */\n      add\n        /* \"#utility.yul\":14231:14257   */\n      mload\n        /* \"#utility.yul\":14289:14337   */\n      tag_277\n        /* \"#utility.yul\":14331:14335   */\n      0x1f\n        /* \"#utility.yul\":14323:14329   */\n      dup10\n        /* \"#utility.yul\":14319:14336   */\n      and\n        /* \"#utility.yul\":14308:14317   */\n      dup3\n        /* \"#utility.yul\":14289:14337   */\n      tag_117\n      jump\t// in\n    tag_277:\n        /* \"#utility.yul\":14281:14287   */\n      dup4\n        /* \"#utility.yul\":14274:14338   */\n      sstore\n        /* \"#utility.yul\":14196:14352   */\n      pop\n        /* \"#utility.yul\":14173:14352   */\n    tag_276:\n        /* \"#utility.yul\":14398:14399   */\n      0x01\n        /* \"#utility.yul\":14394:14395   */\n      0x02\n        /* \"#utility.yul\":14386:14392   */\n      dup9\n        /* \"#utility.yul\":14382:14396   */\n      mul\n        /* \"#utility.yul\":14378:14400   */\n      add\n        /* \"#utility.yul\":14372:14376   */\n      dup9\n        /* \"#utility.yul\":14365:14401   */\n      sstore\n        /* \"#utility.yul\":13800:14411   */\n      pop\n      pop\n      pop\n        /* \"#utility.yul\":13763:14650   */\n    tag_268:\n      pop\n        /* \"#utility.yul\":13353:14656   */\n      pop\n      pop\n      pop\n        /* \"#utility.yul\":13261:14656   */\n      pop\n      pop\n      jump\t// out\n        /* \"#utility.yul\":14662:14883   */\n    tag_119:\n        /* \"#utility.yul\":14802:14836   */\n      0x4172746947616d653a204f6e6c79206f776e65722063616e2063616c6c207468\n        /* \"#utility.yul\":14798:14799   */\n      0x00\n        /* \"#utility.yul\":14790:14796   */\n      dup3\n        /* \"#utility.yul\":14786:14800   */\n      add\n        /* \"#utility.yul\":14779:14837   */\n      mstore\n        /* \"#utility.yul\":14871:14875   */\n      0x6973000000000000000000000000000000000000000000000000000000000000\n        /* \"#utility.yul\":14866:14868   */\n      0x20\n        /* \"#utility.yul\":14858:14864   */\n      dup3\n        /* \"#utility.yul\":14854:14869   */\n      add\n        /* \"#utility.yul\":14847:14876   */\n      mstore\n        /* \"#utility.yul\":14662:14883   */\n      pop\n      jump\t// out\n        /* \"#utility.yul\":14889:15255   */\n    tag_120:\n        /* \"#utility.yul\":15031:15034   */\n      0x00\n        /* \"#utility.yul\":15052:15119   */\n      tag_280\n        /* \"#utility.yul\":15116:15118   */\n      0x22\n        /* \"#utility.yul\":15111:15114   */\n      dup4\n        /* \"#utility.yul\":15052:15119   */\n      tag_92\n      jump\t// in\n    tag_280:\n        /* \"#utility.yul\":15045:15119   */\n      swap2\n      pop\n        /* \"#utility.yul\":15128:15221   */\n      tag_281\n        /* \"#utility.yul\":15217:15220   */\n      dup3\n        /* \"#utility.yul\":15128:15221   */\n      tag_119\n      jump\t// in\n    tag_281:\n        /* \"#utility.yul\":15246:15248   */\n      0x40\n        /* \"#utility.yul\":15241:15244   */\n      dup3\n        /* \"#utility.yul\":15237:15249   */\n      add\n        /* \"#utility.yul\":15230:15249   */\n      swap1\n      pop\n        /* \"#utility.yul\":14889:15255   */\n      swap2\n      swap1\n      pop\n      jump\t// out\n        /* \"#utility.yul\":15261:15680   */\n    tag_66:\n        /* \"#utility.yul\":15427:15431   */\n      0x00\n        /* \"#utility.yul\":15465:15467   */\n      0x20\n        /* \"#utility.yul\":15454:15463   */\n      dup3\n        /* \"#utility.yul\":15450:15468   */\n      add\n        /* \"#utility.yul\":15442:15468   */\n      swap1\n      pop\n        /* \"#utility.yul\":15514:15523   */\n      dup2\n        /* \"#utility.yul\":15508:15512   */\n      dup2\n        /* \"#utility.yul\":15504:15524   */\n      sub\n        /* \"#utility.yul\":15500:15501   */\n      0x00\n        /* \"#utility.yul\":15489:15498   */\n      dup4\n        /* \"#utility.yul\":15485:15502   */\n      add\n        /* \"#utility.yul\":15478:15525   */\n      mstore\n        /* \"#utility.yul\":15542:15673   */\n      tag_283\n        /* \"#utility.yul\":15668:15672   */\n      dup2\n        /* \"#utility.yul\":15542:15673   */\n      tag_120\n      jump\t// in\n    tag_283:\n        /* \"#utility.yul\":15534:15673   */\n      swap1\n      pop\n        /* \"#utility.yul\":15261:15680   */\n      swap2\n      swap1\n      pop\n      jump\t// out\n        /* \"#utility.yul\":15686:15861   */\n    tag_121:\n        /* \"#utility.yul\":15826:15853   */\n      0x4172746947616d653a20496e76616c6964206164647265737300000000000000\n        /* \"#utility.yul\":15822:15823   */\n      0x00\n        /* \"#utility.yul\":15814:15820   */\n      dup3\n        /* \"#utility.yul\":15810:15824   */\n      add\n        /* \"#utility.yul\":15803:15854   */\n      mstore\n        /* \"#utility.yul\":15686:15861   */\n      pop\n      jump\t// out\n        /* \"#utility.yul\":15867:16233   */\n    tag_122:\n        /* \"#utility.yul\":16009:16012   */\n      0x00\n        /* \"#utility.yul\":16030:16097   */\n      tag_286\n        /* \"#utility.yul\":16094:16096   */\n      0x19\n        /* \"#utility.yul\":16089:16092   */\n      dup4\n        /* \"#utility.yul\":16030:16097   */\n      tag_92\n      jump\t// in\n    tag_286:\n        /* \"#utility.yul\":16023:16097   */\n      swap2\n      pop\n        /* \"#utility.yul\":16106:16199   */\n      tag_287\n        /* \"#utility.yul\":16195:16198   */\n      dup3\n        /* \"#utility.yul\":16106:16199   */\n      tag_121\n      jump\t// in\n    tag_287:\n        /* \"#utility.yul\":16224:16226   */\n      0x20\n        /* \"#utility.yul\":16219:16222   */\n      dup3\n        /* \"#utility.yul\":16215:16227   */\n      add\n        /* \"#utility.yul\":16208:16227   */\n      swap1\n      pop\n        /* \"#utility.yul\":15867:16233   */\n      swap2\n      swap1\n      pop\n      jump\t// out\n        /* \"#utility.yul\":16239:16658   */\n    tag_70:\n        /* \"#utility.yul\":16405:16409   */\n      0x00\n        /* \"#utility.yul\":16443:16445   */\n      0x20\n        /* \"#utility.yul\":16432:16441   */\n      dup3\n        /* \"#utility.yul\":16428:16446   */\n      add\n        /* \"#utility.yul\":16420:16446   */\n      swap1\n      pop\n        /* \"#utility.yul\":16492:16501   */\n      dup2\n        /* \"#utility.yul\":16486:16490   */\n      dup2\n        /* \"#utility.yul\":16482:16502   */\n      sub\n        /* \"#utility.yul\":16478:16479   */\n      0x00\n        /* \"#utility.yul\":16467:16476   */\n      dup4\n        /* \"#utility.yul\":16463:16480   */\n      add\n        /* \"#utility.yul\":16456:16503   */\n      mstore\n        /* \"#utility.yul\":16520:16651   */\n      tag_289\n        /* \"#utility.yul\":16646:16650   */\n      dup2\n        /* \"#utility.yul\":16520:16651   */\n      tag_122\n      jump\t// in\n    tag_289:\n        /* \"#utility.yul\":16512:16651   */\n      swap1\n      pop\n        /* \"#utility.yul\":16239:16658   */\n      swap2\n      swap1\n      pop\n      jump\t// out\n        /* \"#utility.yul\":16664:16831   */\n    tag_123:\n        /* \"#utility.yul\":16804:16823   */\n      0x4172747947616d653a20416c7265616479000000000000000000000000000000\n        /* \"#utility.yul\":16800:16801   */\n      0x00\n        /* \"#utility.yul\":16792:16798   */\n      dup3\n        /* \"#utility.yul\":16788:16802   */\n      add\n        /* \"#utility.yul\":16781:16824   */\n      mstore\n        /* \"#utility.yul\":16664:16831   */\n      pop\n      jump\t// out\n        /* \"#utility.yul\":16837:17203   */\n    tag_124:\n        /* \"#utility.yul\":16979:16982   */\n      0x00\n        /* \"#utility.yul\":17000:17067   */\n      tag_292\n        /* \"#utility.yul\":17064:17066   */\n      0x11\n        /* \"#utility.yul\":17059:17062   */\n      dup4\n        /* \"#utility.yul\":17000:17067   */\n      tag_92\n      jump\t// in\n    tag_292:\n        /* \"#utility.yul\":16993:17067   */\n      swap2\n      pop\n        /* \"#utility.yul\":17076:17169   */\n      tag_293\n        /* \"#utility.yul\":17165:17168   */\n      dup3\n        /* \"#utility.yul\":17076:17169   */\n      tag_123\n      jump\t// in\n    tag_293:\n        /* \"#utility.yul\":17194:17196   */\n      0x20\n        /* \"#utility.yul\":17189:17192   */\n      dup3\n        /* \"#utility.yul\":17185:17197   */\n      add\n        /* \"#utility.yul\":17178:17197   */\n      swap1\n      pop\n        /* \"#utility.yul\":16837:17203   */\n      swap2\n      swap1\n      pop\n      jump\t// out\n        /* \"#utility.yul\":17209:17628   */\n    tag_73:\n        /* \"#utility.yul\":17375:17379   */\n      0x00\n        /* \"#utility.yul\":17413:17415   */\n      0x20\n        /* \"#utility.yul\":17402:17411   */\n      dup3\n        /* \"#utility.yul\":17398:17416   */\n      add\n        /* \"#utility.yul\":17390:17416   */\n      swap1\n      pop\n        /* \"#utility.yul\":17462:17471   */\n      dup2\n        /* \"#utility.yul\":17456:17460   */\n      dup2\n        /* \"#utility.yul\":17452:17472   */\n      sub\n        /* \"#utility.yul\":17448:17449   */\n      0x00\n        /* \"#utility.yul\":17437:17446   */\n      dup4\n        /* \"#utility.yul\":17433:17450   */\n      add\n        /* \"#utility.yul\":17426:17473   */\n      mstore\n        /* \"#utility.yul\":17490:17621   */\n      tag_295\n        /* \"#utility.yul\":17616:17620   */\n      dup2\n        /* \"#utility.yul\":17490:17621   */\n      tag_124\n      jump\t// in\n    tag_295:\n        /* \"#utility.yul\":17482:17621   */\n      swap1\n      pop\n        /* \"#utility.yul\":17209:17628   */\n      swap2\n      swap1\n      pop\n      jump\t// out\n\n    auxdata: 0xa2646970667358221220951a495e908aea83bb2929cbcd6f911ea4405a1d1929cc14ff25f2aefffa775b64736f6c634300081e0033\n}\n",
				"bytecode": {
					"linkReferences": {},
					"object": "608060405260016003553480156013575f5ffd5b50335f5f6101000a81548173ffffffffffffffffffffffffffffffffffffffff021916908373ffffffffffffffffffffffffffffffffffffffff1602179055506111c9806100605f395ff3fe608060405234801561000f575f5ffd5b5060043610610060575f3560e01c80632df6b92e1461006457806335c3ecee1461009457806357f219b7146100c45780638da5cb5b146100f9578063bd7e878f14610117578063d6f8f75e14610147575b5f5ffd5b61007e600480360381019061007991906108ab565b610163565b60405161008b91906108f0565b60405180910390f35b6100ae60048036038101906100a9919061099d565b610180565b6040516100bb9190610a63565b60405180910390f35b6100de60048036038101906100d99190610a7c565b6104b4565b6040516100f096959493929190610b26565b60405180910390f35b610101610617565b60405161010e9190610b93565b60405180910390f35b610131600480360381019061012c9190610a7c565b61063b565b60405161013e9190610b93565b60405180910390f35b610161600480360381019061015c91906108ab565b61066b565b005b6004602052805f5260405f205f915054906101000a900460ff1681565b5f60045f3373ffffffffffffffffffffffffffffffffffffffff1673ffffffffffffffffffffffffffffffffffffffff1681526020019081526020015f205f9054906101000a900460ff168061022157505f5f9054906101000a900473ffffffffffffffffffffffffffffffffffffffff1673ffffffffffffffffffffffffffffffffffffffff163373ffffffffffffffffffffffffffffffffffffffff16145b610260576040517f08c379a000000000000000000000000000000000000000000000000000000000815260040161025790610c1c565b60405180910390fd5b5f73ffffffffffffffffffffffffffffffffffffffff168273ffffffffffffffffffffffffffffffffffffffff16036102ce576040517f08c379a00000000000000000000000000000000000000000000000000000000081526004016102c590610caa565b60405180910390fd5b5f600354905060035f8154809291906102e690610cf5565b91905055506040518060c001604052808281526020018a8a8080601f0160208091040260200160405190810160405280939291908181526020018383808284375f81840152601f19601f82011690508083019250505050505050815260200188815260200187815260200186868080601f0160208091040260200160405190810160405280939291908181526020018383808284375f81840152601f19601f8201169050808301925050505050505081526020013373ffffffffffffffffffffffffffffffffffffffff1681525060015f8381526020019081526020015f205f820151815f015560208201518160010190816103e29190610f66565b506040820151816002015560608201518160030155608082015181600401908161040c9190610f66565b5060a0820151816005015f6101000a81548173ffffffffffffffffffffffffffffffffffffffff021916908373ffffffffffffffffffffffffffffffffffffffff1602179055509050508260025f8381526020019081526020015f205f6101000a81548173ffffffffffffffffffffffffffffffffffffffff021916908373ffffffffffffffffffffffffffffffffffffffff16021790555080915050979650505050505050565b6001602052805f5260405f205f91509050805f0154908060010180546104d990610d96565b80601f016020809104026020016040519081016040528092919081815260200182805461050590610d96565b80156105505780601f1061052757610100808354040283529160200191610550565b820191905f5260205f20905b81548152906001019060200180831161053357829003601f168201915b50505050509080600201549080600301549080600401805461057190610d96565b80601f016020809104026020016040519081016040528092919081815260200182805461059d90610d96565b80156105e85780601f106105bf576101008083540402835291602001916105e8565b820191905f5260205f20905b8154815290600101906020018083116105cb57829003601f168201915b505050505090806005015f9054906101000a900473ffffffffffffffffffffffffffffffffffffffff16905086565b5f5f9054906101000a900473ffffffffffffffffffffffffffffffffffffffff1681565b6002602052805f5260405f205f915054906101000a900473ffffffffffffffffffffffffffffffffffffffff1681565b5f5f9054906101000a900473ffffffffffffffffffffffffffffffffffffffff1673ffffffffffffffffffffffffffffffffffffffff163373ffffffffffffffffffffffffffffffffffffffff16146106f9576040517f08c379a00000000000000000000000000000000000000000000000000000000081526004016106f0906110a5565b60405180910390fd5b5f73ffffffffffffffffffffffffffffffffffffffff168173ffffffffffffffffffffffffffffffffffffffff1603610767576040517f08c379a000000000000000000000000000000000000000000000000000000000815260040161075e9061110d565b60405180910390fd5b60045f8273ffffffffffffffffffffffffffffffffffffffff1673ffffffffffffffffffffffffffffffffffffffff1681526020019081526020015f205f9054906101000a900460ff16156107f1576040517f08c379a00000000000000000000000000000000000000000000000000000000081526004016107e890611175565b60405180910390fd5b600160045f8373ffffffffffffffffffffffffffffffffffffffff1673ffffffffffffffffffffffffffffffffffffffff1681526020019081526020015f205f6101000a81548160ff02191690831515021790555050565b5f5ffd5b5f5ffd5b5f73ffffffffffffffffffffffffffffffffffffffff82169050919050565b5f61087a82610851565b9050919050565b61088a81610870565b8114610894575f5ffd5b50565b5f813590506108a581610881565b92915050565b5f602082840312156108c0576108bf610849565b5b5f6108cd84828501610897565b91505092915050565b5f8115159050919050565b6108ea816108d6565b82525050565b5f6020820190506109035f8301846108e1565b92915050565b5f5ffd5b5f5ffd5b5f5ffd5b5f5f83601f84011261092a57610929610909565b5b8235905067ffffffffffffffff8111156109475761094661090d565b5b60208301915083600182028301111561096357610962610911565b5b9250929050565b5f819050919050565b61097c8161096a565b8114610986575f5ffd5b50565b5f8135905061099781610973565b92915050565b5f5f5f5f5f5f5f60a0888a0312156109b8576109b7610849565b5b5f88013567ffffffffffffffff8111156109d5576109d461084d565b5b6109e18a828b01610915565b975097505060206109f48a828b01610989565b9550506040610a058a828b01610989565b945050606088013567ffffffffffffffff811115610a2657610a2561084d565b5b610a328a828b01610915565b93509350506080610a458a828b01610897565b91505092959891949750929550565b610a5d8161096a565b82525050565b5f602082019050610a765f830184610a54565b92915050565b5f60208284031215610a9157610a90610849565b5b5f610a9e84828501610989565b91505092915050565b5f81519050919050565b5f82825260208201905092915050565b8281835e5f83830152505050565b5f601f19601f8301169050919050565b5f610ae982610aa7565b610af38185610ab1565b9350610b03818560208601610ac1565b610b0c81610acf565b840191505092915050565b610b2081610870565b82525050565b5f60c082019050610b395f830189610a54565b8181036020830152610b4b8188610adf565b9050610b5a6040830187610a54565b610b676060830186610a54565b8181036080830152610b798185610adf565b9050610b8860a0830184610b17565b979650505050505050565b5f602082019050610ba65f830184610b17565b92915050565b7f4172746947616d653a204f6e6c7920626c61636b736d697468206f72206f776e5f8201527f65722063616e2063726166740000000000000000000000000000000000000000602082015250565b5f610c06602c83610ab1565b9150610c1182610bac565b604082019050919050565b5f6020820190508181035f830152610c3381610bfa565b9050919050565b7f4172746947616d653a2043616e6e6f7420637261667420746f207a65726f20615f8201527f6464726573730000000000000000000000000000000000000000000000000000602082015250565b5f610c94602683610ab1565b9150610c9f82610c3a565b604082019050919050565b5f6020820190508181035f830152610cc181610c88565b9050919050565b7f4e487b71000000000000000000000000000000000000000000000000000000005f52601160045260245ffd5b5f610cff8261096a565b91507fffffffffffffffffffffffffffffffffffffffffffffffffffffffffffffffff8203610d3157610d30610cc8565b5b600182019050919050565b7f4e487b71000000000000000000000000000000000000000000000000000000005f52604160045260245ffd5b7f4e487b71000000000000000000000000000000000000000000000000000000005f52602260045260245ffd5b5f6002820490506001821680610dad57607f821691505b602082108103610dc057610dbf610d69565b5b50919050565b5f819050815f5260205f209050919050565b5f6020601f8301049050919050565b5f82821b905092915050565b5f60088302610e227fffffffffffffffffffffffffffffffffffffffffffffffffffffffffffffffff82610de7565b610e2c8683610de7565b95508019841693508086168417925050509392505050565b5f819050919050565b5f610e67610e62610e5d8461096a565b610e44565b61096a565b9050919050565b5f819050919050565b610e8083610e4d565b610e94610e8c82610e6e565b848454610df3565b825550505050565b5f5f905090565b610eab610e9c565b610eb6818484610e77565b505050565b5b81811015610ed957610ece5f82610ea3565b600181019050610ebc565b5050565b601f821115610f1e57610eef81610dc6565b610ef884610dd8565b81016020851015610f07578190505b610f1b610f1385610dd8565b830182610ebb565b50505b505050565b5f82821c905092915050565b5f610f3e5f1984600802610f23565b1980831691505092915050565b5f610f568383610f2f565b9150826002028217905092915050565b610f6f82610aa7565b67ffffffffffffffff811115610f8857610f87610d3c565b5b610f928254610d96565b610f9d828285610edd565b5f60209050601f831160018114610fce575f8415610fbc578287015190505b610fc68582610f4b565b86555061102d565b601f198416610fdc86610dc6565b5f5b8281101561100357848901518255600182019150602085019450602081019050610fde565b86831015611020578489015161101c601f891682610f2f565b8355505b6001600288020188555050505b505050505050565b7f4172746947616d653a204f6e6c79206f776e65722063616e2063616c6c2074685f8201527f6973000000000000000000000000000000000000000000000000000000000000602082015250565b5f61108f602283610ab1565b915061109a82611035565b604082019050919050565b5f6020820190508181035f8301526110bc81611083565b9050919050565b7f4172746947616d653a20496e76616c69642061646472657373000000000000005f82015250565b5f6110f7601983610ab1565b9150611102826110c3565b602082019050919050565b5f6020820190508181035f830152611124816110eb565b9050919050565b7f4172747947616d653a20416c72656164790000000000000000000000000000005f82015250565b5f61115f601183610ab1565b915061116a8261112b565b602082019050919050565b5f6020820190508181035f83015261118c81611153565b905091905056fea2646970667358221220951a495e908aea83bb2929cbcd6f911ea4405a1d1929cc14ff25f2aefffa775b64736f6c634300081e0033",
					"opcodes": "PUSH1 0x80 PUSH1 0x40 MSTORE PUSH1 0x1 PUSH1 0x3 SSTORE CALLVALUE DUP1 ISZERO PUSH1 0x13 JUMPI PUSH0 PUSH0 REVERT JUMPDEST POP CALLER PUSH0 PUSH0 PUSH2 0x100 EXP DUP2 SLOAD DUP2 PUSH20 0xFFFFFFFFFFFFFFFFFFFFFFFFFFFFFFFFFFFFFFFF MUL NOT AND SWAP1 DUP4 PUSH20 0xFFFFFFFFFFFFFFFFFFFFFFFFFFFFFFFFFFFFFFFF AND MUL OR SWAP1 SSTORE POP PUSH2 0x11C9 DUP1 PUSH2 0x60 PUSH0 CODECOPY PUSH0 RETURN INVALID PUSH1 0x80 PUSH1 0x40 MSTORE CALLVALUE DUP1 ISZERO PUSH2 0xF JUMPI PUSH0 PUSH0 REVERT JUMPDEST POP PUSH1 0x4 CALLDATASIZE LT PUSH2 0x60 JUMPI PUSH0 CALLDATALOAD PUSH1 0xE0 SHR DUP1 PUSH4 0x2DF6B92E EQ PUSH2 0x64 JUMPI DUP1 PUSH4 0x35C3ECEE EQ PUSH2 0x94 JUMPI DUP1 PUSH4 0x57F219B7 EQ PUSH2 0xC4 JUMPI DUP1 PUSH4 0x8DA5CB5B EQ PUSH2 0xF9 JUMPI DUP1 PUSH4 0xBD7E878F EQ PUSH2 0x117 JUMPI DUP1 PUSH4 0xD6F8F75E EQ PUSH2 0x147 JUMPI JUMPDEST PUSH0 PUSH0 REVERT JUMPDEST PUSH2 0x7E PUSH1 0x4 DUP1 CALLDATASIZE SUB DUP2 ADD SWAP1 PUSH2 0x79 SWAP2 SWAP1 PUSH2 0x8AB JUMP JUMPDEST PUSH2 0x163 JUMP JUMPDEST PUSH1 0x40 MLOAD PUSH2 0x8B SWAP2 SWAP1 PUSH2 0x8F0 JUMP JUMPDEST PUSH1 0x40 MLOAD DUP1 SWAP2 SUB SWAP1 RETURN JUMPDEST PUSH2 0xAE PUSH1 0x4 DUP1 CALLDATASIZE SUB DUP2 ADD SWAP1 PUSH2 0xA9 SWAP2 SWAP1 PUSH2 0x99D JUMP JUMPDEST PUSH2 0x180 JUMP JUMPDEST PUSH1 0x40 MLOAD PUSH2 0xBB SWAP2 SWAP1 PUSH2 0xA63 JUMP JUMPDEST PUSH1 0x40 MLOAD DUP1 SWAP2 SUB SWAP1 RETURN JUMPDEST PUSH2 0xDE PUSH1 0x4 DUP1 CALLDATASIZE SUB DUP2 ADD SWAP1 PUSH2 0xD9 SWAP2 SWAP1 PUSH2 0xA7C JUMP JUMPDEST PUSH2 0x4B4 JUMP JUMPDEST PUSH1 0x40 MLOAD PUSH2 0xF0 SWAP7 SWAP6 SWAP5 SWAP4 SWAP3 SWAP2 SWAP1 PUSH2 0xB26 JUMP JUMPDEST PUSH1 0x40 MLOAD DUP1 SWAP2 SUB SWAP1 RETURN JUMPDEST PUSH2 0x101 PUSH2 0x617 JUMP JUMPDEST PUSH1 0x40 MLOAD PUSH2 0x10E SWAP2 SWAP1 PUSH2 0xB93 JUMP JUMPDEST PUSH1 0x40 MLOAD DUP1 SWAP2 SUB SWAP1 RETURN JUMPDEST PUSH2 0x131 PUSH1 0x4 DUP1 CALLDATASIZE SUB DUP2 ADD SWAP1 PUSH2 0x12C SWAP2 SWAP1 PUSH2 0xA7C JUMP JUMPDEST PUSH2 0x63B JUMP JUMPDEST PUSH1 0x40 MLOAD PUSH2 0x13E SWAP2 SWAP1 PUSH2 0xB93 JUMP JUMPDEST PUSH1 0x40 MLOAD DUP1 SWAP2 SUB SWAP1 RETURN JUMPDEST PUSH2 0x161 PUSH1 0x4 DUP1 CALLDATASIZE SUB DUP2 ADD SWAP1 PUSH2 0x15C SWAP2 SWAP1 PUSH2 0x8AB JUMP JUMPDEST PUSH2 0x66B JUMP JUMPDEST STOP JUMPDEST PUSH1 0x4 PUSH1 0x20 MSTORE DUP1 PUSH0 MSTORE PUSH1 0x40 PUSH0 KECCAK256 PUSH0 SWAP2 POP SLOAD SWAP1 PUSH2 0x100 EXP SWAP1 DIV PUSH1 0xFF AND DUP2 JUMP JUMPDEST PUSH0 PUSH1 0x4 PUSH0 CALLER PUSH20 0xFFFFFFFFFFFFFFFFFFFFFFFFFFFFFFFFFFFFFFFF AND PUSH20 0xFFFFFFFFFFFFFFFFFFFFFFFFFFFFFFFFFFFFFFFF AND DUP2 MSTORE PUSH1 0x20 ADD SWAP1 DUP2 MSTORE PUSH1 0x20 ADD PUSH0 KECCAK256 PUSH0 SWAP1 SLOAD SWAP1 PUSH2 0x100 EXP SWAP1 DIV PUSH1 0xFF AND DUP1 PUSH2 0x221 JUMPI POP PUSH0 PUSH0 SWAP1 SLOAD SWAP1 PUSH2 0x100 EXP SWAP1 DIV PUSH20 0xFFFFFFFFFFFFFFFFFFFFFFFFFFFFFFFFFFFFFFFF AND PUSH20 0xFFFFFFFFFFFFFFFFFFFFFFFFFFFFFFFFFFFFFFFF AND CALLER PUSH20 0xFFFFFFFFFFFFFFFFFFFFFFFFFFFFFFFFFFFFFFFF AND EQ JUMPDEST PUSH2 0x260 JUMPI PUSH1 0x40 MLOAD PUSH32 0x8C379A000000000000000000000000000000000000000000000000000000000 DUP2 MSTORE PUSH1 0x4 ADD PUSH2 0x257 SWAP1 PUSH2 0xC1C JUMP JUMPDEST PUSH1 0x40 MLOAD DUP1 SWAP2 SUB SWAP1 REVERT JUMPDEST PUSH0 PUSH20 0xFFFFFFFFFFFFFFFFFFFFFFFFFFFFFFFFFFFFFFFF AND DUP3 PUSH20 0xFFFFFFFFFFFFFFFFFFFFFFFFFFFFFFFFFFFFFFFF AND SUB PUSH2 0x2CE JUMPI PUSH1 0x40 MLOAD PUSH32 0x8C379A000000000000000000000000000000000000000000000000000000000 DUP2 MSTORE PUSH1 0x4 ADD PUSH2 0x2C5 SWAP1 PUSH2 0xCAA JUMP JUMPDEST PUSH1 0x40 MLOAD DUP1 SWAP2 SUB SWAP1 REVERT JUMPDEST PUSH0 PUSH1 0x3 SLOAD SWAP1 POP PUSH1 0x3 PUSH0 DUP2 SLOAD DUP1 SWAP3 SWAP2 SWAP1 PUSH2 0x2E6 SWAP1 PUSH2 0xCF5 JUMP JUMPDEST SWAP2 SWAP1 POP SSTORE POP PUSH1 0x40 MLOAD DUP1 PUSH1 0xC0 ADD PUSH1 0x40 MSTORE DUP1 DUP3 DUP2 MSTORE PUSH1 0x20 ADD DUP11 DUP11 DUP1 DUP1 PUSH1 0x1F ADD PUSH1 0x20 DUP1 SWAP2 DIV MUL PUSH1 0x20 ADD PUSH1 0x40 MLOAD SWAP1 DUP2 ADD PUSH1 0x40 MSTORE DUP1 SWAP4 SWAP3 SWAP2 SWAP1 DUP2 DUP2 MSTORE PUSH1 0x20 ADD DUP4 DUP4 DUP1 DUP3 DUP5 CALLDATACOPY PUSH0 DUP2 DUP5 ADD MSTORE PUSH1 0x1F NOT PUSH1 0x1F DUP3 ADD AND SWAP1 POP DUP1 DUP4 ADD SWAP3 POP POP POP POP POP POP POP DUP2 MSTORE PUSH1 0x20 ADD DUP9 DUP2 MSTORE PUSH1 0x20 ADD DUP8 DUP2 MSTORE PUSH1 0x20 ADD DUP7 DUP7 DUP1 DUP1 PUSH1 0x1F ADD PUSH1 0x20 DUP1 SWAP2 DIV MUL PUSH1 0x20 ADD PUSH1 0x40 MLOAD SWAP1 DUP2 ADD PUSH1 0x40 MSTORE DUP1 SWAP4 SWAP3 SWAP2 SWAP1 DUP2 DUP2 MSTORE PUSH1 0x20 ADD DUP4 DUP4 DUP1 DUP3 DUP5 CALLDATACOPY PUSH0 DUP2 DUP5 ADD MSTORE PUSH1 0x1F NOT PUSH1 0x1F DUP3 ADD AND SWAP1 POP DUP1 DUP4 ADD SWAP3 POP POP POP POP POP POP POP DUP2 MSTORE PUSH1 0x20 ADD CALLER PUSH20 0xFFFFFFFFFFFFFFFFFFFFFFFFFFFFFFFFFFFFFFFF AND DUP2 MSTORE POP PUSH1 0x1 PUSH0 DUP4 DUP2 MSTORE PUSH1 0x20 ADD SWAP1 DUP2 MSTORE PUSH1 0x20 ADD PUSH0 KECCAK256 PUSH0 DUP3 ADD MLOAD DUP2 PUSH0 ADD SSTORE PUSH1 0x20 DUP3 ADD MLOAD DUP2 PUSH1 0x1 ADD SWAP1 DUP2 PUSH2 0x3E2 SWAP2 SWAP1 PUSH2 0xF66 JUMP JUMPDEST POP PUSH1 0x40 DUP3 ADD MLOAD DUP2 PUSH1 0x2 ADD SSTORE PUSH1 0x60 DUP3 ADD MLOAD DUP2 PUSH1 0x3 ADD SSTORE PUSH1 0x80 DUP3 ADD MLOAD DUP2 PUSH1 0x4 ADD SWAP1 DUP2 PUSH2 0x40C SWAP2 SWAP1 PUSH2 0xF66 JUMP JUMPDEST POP PUSH1 0xA0 DUP3 ADD MLOAD DUP2 PUSH1 0x5 ADD PUSH0 PUSH2 0x100 EXP DUP2 SLOAD DUP2 PUSH20 0xFFFFFFFFFFFFFFFFFFFFFFFFFFFFFFFFFFFFFFFF MUL NOT AND SWAP1 DUP4 PUSH20 0xFFFFFFFFFFFFFFFFFFFFFFFFFFFFFFFFFFFFFFFF AND MUL OR SWAP1 SSTORE POP SWAP1 POP POP DUP3 PUSH1 0x2 PUSH0 DUP4 DUP2 MSTORE PUSH1 0x20 ADD SWAP1 DUP2 MSTORE PUSH1 0x20 ADD PUSH0 KECCAK256 PUSH0 PUSH2 0x100 EXP DUP2 SLOAD DUP2 PUSH20 0xFFFFFFFFFFFFFFFFFFFFFFFFFFFFFFFFFFFFFFFF MUL NOT AND SWAP1 DUP4 PUSH20 0xFFFFFFFFFFFFFFFFFFFFFFFFFFFFFFFFFFFFFFFF AND MUL OR SWAP1 SSTORE POP DUP1 SWAP2 POP POP SWAP8 SWAP7 POP POP POP POP POP POP POP JUMP JUMPDEST PUSH1 0x1 PUSH1 0x20 MSTORE DUP1 PUSH0 MSTORE PUSH1 0x40 PUSH0 KECCAK256 PUSH0 SWAP2 POP SWAP1 POP DUP1 PUSH0 ADD SLOAD SWAP1 DUP1 PUSH1 0x1 ADD DUP1 SLOAD PUSH2 0x4D9 SWAP1 PUSH2 0xD96 JUMP JUMPDEST DUP1 PUSH1 0x1F ADD PUSH1 0x20 DUP1 SWAP2 DIV MUL PUSH1 0x20 ADD PUSH1 0x40 MLOAD SWAP1 DUP2 ADD PUSH1 0x40 MSTORE DUP1 SWAP3 SWAP2 SWAP1 DUP2 DUP2 MSTORE PUSH1 0x20 ADD DUP3 DUP1 SLOAD PUSH2 0x505 SWAP1 PUSH2 0xD96 JUMP JUMPDEST DUP1 ISZERO PUSH2 0x550 JUMPI DUP1 PUSH1 0x1F LT PUSH2 0x527 JUMPI PUSH2 0x100 DUP1 DUP4 SLOAD DIV MUL DUP4 MSTORE SWAP2 PUSH1 0x20 ADD SWAP2 PUSH2 0x550 JUMP JUMPDEST DUP3 ADD SWAP2 SWAP1 PUSH0 MSTORE PUSH1 0x20 PUSH0 KECCAK256 SWAP1 JUMPDEST DUP2 SLOAD DUP2 MSTORE SWAP1 PUSH1 0x1 ADD SWAP1 PUSH1 0x20 ADD DUP1 DUP4 GT PUSH2 0x533 JUMPI DUP3 SWAP1 SUB PUSH1 0x1F AND DUP3 ADD SWAP2 JUMPDEST POP POP POP POP POP SWAP1 DUP1 PUSH1 0x2 ADD SLOAD SWAP1 DUP1 PUSH1 0x3 ADD SLOAD SWAP1 DUP1 PUSH1 0x4 ADD DUP1 SLOAD PUSH2 0x571 SWAP1 PUSH2 0xD96 JUMP JUMPDEST DUP1 PUSH1 0x1F ADD PUSH1 0x20 DUP1 SWAP2 DIV MUL PUSH1 0x20 ADD PUSH1 0x40 MLOAD SWAP1 DUP2 ADD PUSH1 0x40 MSTORE DUP1 SWAP3 SWAP2 SWAP1 DUP2 DUP2 MSTORE PUSH1 0x20 ADD DUP3 DUP1 SLOAD PUSH2 0x59D SWAP1 PUSH2 0xD96 JUMP JUMPDEST DUP1 ISZERO PUSH2 0x5E8 JUMPI DUP1 PUSH1 0x1F LT PUSH2 0x5BF JUMPI PUSH2 0x100 DUP1 DUP4 SLOAD DIV MUL DUP4 MSTORE SWAP2 PUSH1 0x20 ADD SWAP2 PUSH2 0x5E8 JUMP JUMPDEST DUP3 ADD SWAP2 SWAP1 PUSH0 MSTORE PUSH1 0x20 PUSH0 KECCAK256 SWAP1 JUMPDEST DUP2 SLOAD DUP2 MSTORE SWAP1 PUSH1 0x1 ADD SWAP1 PUSH1 0x20 ADD DUP1 DUP4 GT PUSH2 0x5CB JUMPI DUP3 SWAP1 SUB PUSH1 0x1F AND DUP3 ADD SWAP2 JUMPDEST POP POP POP POP POP SWAP1 DUP1 PUSH1 0x5 ADD PUSH0 SWAP1 SLOAD SWAP1 PUSH2 0x100 EXP SWAP1 DIV PUSH20 0xFFFFFFFFFFFFFFFFFFFFFFFFFFFFFFFFFFFFFFFF AND SWAP1 POP DUP7 JUMP JUMPDEST PUSH0 PUSH0 SWAP1 SLOAD SWAP1 PUSH2 0x100 EXP SWAP1 DIV PUSH20 0xFFFFFFFFFFFFFFFFFFFFFFFFFFFFFFFFFFFFFFFF AND DUP2 JUMP JUMPDEST PUSH1 0x2 PUSH1 0x20 MSTORE DUP1 PUSH0 MSTORE PUSH1 0x40 PUSH0 KECCAK256 PUSH0 SWAP2 POP SLOAD SWAP1 PUSH2 0x100 EXP SWAP1 DIV PUSH20 0xFFFFFFFFFFFFFFFFFFFFFFFFFFFFFFFFFFFFFFFF AND DUP2 JUMP JUMPDEST PUSH0 PUSH0 SWAP1 SLOAD SWAP1 PUSH2 0x100 EXP SWAP1 DIV PUSH20 0xFFFFFFFFFFFFFFFFFFFFFFFFFFFFFFFFFFFFFFFF AND PUSH20 0xFFFFFFFFFFFFFFFFFFFFFFFFFFFFFFFFFFFFFFFF AND CALLER PUSH20 0xFFFFFFFFFFFFFFFFFFFFFFFFFFFFFFFFFFFFFFFF AND EQ PUSH2 0x6F9 JUMPI PUSH1 0x40 MLOAD PUSH32 0x8C379A000000000000000000000000000000000000000000000000000000000 DUP2 MSTORE PUSH1 0x4 ADD PUSH2 0x6F0 SWAP1 PUSH2 0x10A5 JUMP JUMPDEST PUSH1 0x40 MLOAD DUP1 SWAP2 SUB SWAP1 REVERT JUMPDEST PUSH0 PUSH20 0xFFFFFFFFFFFFFFFFFFFFFFFFFFFFFFFFFFFFFFFF AND DUP2 PUSH20 0xFFFFFFFFFFFFFFFFFFFFFFFFFFFFFFFFFFFFFFFF AND SUB PUSH2 0x767 JUMPI PUSH1 0x40 MLOAD PUSH32 0x8C379A000000000000000000000000000000000000000000000000000000000 DUP2 MSTORE PUSH1 0x4 ADD PUSH2 0x75E SWAP1 PUSH2 0x110D JUMP JUMPDEST PUSH1 0x40 MLOAD DUP1 SWAP2 SUB SWAP1 REVERT JUMPDEST PUSH1 0x4 PUSH0 DUP3 PUSH20 0xFFFFFFFFFFFFFFFFFFFFFFFFFFFFFFFFFFFFFFFF AND PUSH20 0xFFFFFFFFFFFFFFFFFFFFFFFFFFFFFFFFFFFFFFFF AND DUP2 MSTORE PUSH1 0x20 ADD SWAP1 DUP2 MSTORE PUSH1 0x20 ADD PUSH0 KECCAK256 PUSH0 SWAP1 SLOAD SWAP1 PUSH2 0x100 EXP SWAP1 DIV PUSH1 0xFF AND ISZERO PUSH2 0x7F1 JUMPI PUSH1 0x40 MLOAD PUSH32 0x8C379A000000000000000000000000000000000000000000000000000000000 DUP2 MSTORE PUSH1 0x4 ADD PUSH2 0x7E8 SWAP1 PUSH2 0x1175 JUMP JUMPDEST PUSH1 0x40 MLOAD DUP1 SWAP2 SUB SWAP1 REVERT JUMPDEST PUSH1 0x1 PUSH1 0x4 PUSH0 DUP4 PUSH20 0xFFFFFFFFFFFFFFFFFFFFFFFFFFFFFFFFFFFFFFFF AND PUSH20 0xFFFFFFFFFFFFFFFFFFFFFFFFFFFFFFFFFFFFFFFF AND DUP2 MSTORE PUSH1 0x20 ADD SWAP1 DUP2 MSTORE PUSH1 0x20 ADD PUSH0 KECCAK256 PUSH0 PUSH2 0x100 EXP DUP2 SLOAD DUP2 PUSH1 0xFF MUL NOT AND SWAP1 DUP4 ISZERO ISZERO MUL OR SWAP1 SSTORE POP POP JUMP JUMPDEST PUSH0 PUSH0 REVERT JUMPDEST PUSH0 PUSH0 REVERT JUMPDEST PUSH0 PUSH20 0xFFFFFFFFFFFFFFFFFFFFFFFFFFFFFFFFFFFFFFFF DUP3 AND SWAP1 POP SWAP2 SWAP1 POP JUMP JUMPDEST PUSH0 PUSH2 0x87A DUP3 PUSH2 0x851 JUMP JUMPDEST SWAP1 POP SWAP2 SWAP1 POP JUMP JUMPDEST PUSH2 0x88A DUP2 PUSH2 0x870 JUMP JUMPDEST DUP2 EQ PUSH2 0x894 JUMPI PUSH0 PUSH0 REVERT JUMPDEST POP JUMP JUMPDEST PUSH0 DUP2 CALLDATALOAD SWAP1 POP PUSH2 0x8A5 DUP2 PUSH2 0x881 JUMP JUMPDEST SWAP3 SWAP2 POP POP JUMP JUMPDEST PUSH0 PUSH1 0x20 DUP3 DUP5 SUB SLT ISZERO PUSH2 0x8C0 JUMPI PUSH2 0x8BF PUSH2 0x849 JUMP JUMPDEST JUMPDEST PUSH0 PUSH2 0x8CD DUP5 DUP3 DUP6 ADD PUSH2 0x897 JUMP JUMPDEST SWAP2 POP POP SWAP3 SWAP2 POP POP JUMP JUMPDEST PUSH0 DUP2 ISZERO ISZERO SWAP1 POP SWAP2 SWAP1 POP JUMP JUMPDEST PUSH2 0x8EA DUP2 PUSH2 0x8D6 JUMP JUMPDEST DUP3 MSTORE POP POP JUMP JUMPDEST PUSH0 PUSH1 0x20 DUP3 ADD SWAP1 POP PUSH2 0x903 PUSH0 DUP4 ADD DUP5 PUSH2 0x8E1 JUMP JUMPDEST SWAP3 SWAP2 POP POP JUMP JUMPDEST PUSH0 PUSH0 REVERT JUMPDEST PUSH0 PUSH0 REVERT JUMPDEST PUSH0 PUSH0 REVERT JUMPDEST PUSH0 PUSH0 DUP4 PUSH1 0x1F DUP5 ADD SLT PUSH2 0x92A JUMPI PUSH2 0x929 PUSH2 0x909 JUMP JUMPDEST JUMPDEST DUP3 CALLDATALOAD SWAP1 POP PUSH8 0xFFFFFFFFFFFFFFFF DUP2 GT ISZERO PUSH2 0x947 JUMPI PUSH2 0x946 PUSH2 0x90D JUMP JUMPDEST JUMPDEST PUSH1 0x20 DUP4 ADD SWAP2 POP DUP4 PUSH1 0x1 DUP3 MUL DUP4 ADD GT ISZERO PUSH2 0x963 JUMPI PUSH2 0x962 PUSH2 0x911 JUMP JUMPDEST JUMPDEST SWAP3 POP SWAP3 SWAP1 POP JUMP JUMPDEST PUSH0 DUP2 SWAP1 POP SWAP2 SWAP1 POP JUMP JUMPDEST PUSH2 0x97C DUP2 PUSH2 0x96A JUMP JUMPDEST DUP2 EQ PUSH2 0x986 JUMPI PUSH0 PUSH0 REVERT JUMPDEST POP JUMP JUMPDEST PUSH0 DUP2 CALLDATALOAD SWAP1 POP PUSH2 0x997 DUP2 PUSH2 0x973 JUMP JUMPDEST SWAP3 SWAP2 POP POP JUMP JUMPDEST PUSH0 PUSH0 PUSH0 PUSH0 PUSH0 PUSH0 PUSH0 PUSH1 0xA0 DUP9 DUP11 SUB SLT ISZERO PUSH2 0x9B8 JUMPI PUSH2 0x9B7 PUSH2 0x849 JUMP JUMPDEST JUMPDEST PUSH0 DUP9 ADD CALLDATALOAD PUSH8 0xFFFFFFFFFFFFFFFF DUP2 GT ISZERO PUSH2 0x9D5 JUMPI PUSH2 0x9D4 PUSH2 0x84D JUMP JUMPDEST JUMPDEST PUSH2 0x9E1 DUP11 DUP3 DUP12 ADD PUSH2 0x915 JUMP JUMPDEST SWAP8 POP SWAP8 POP POP PUSH1 0x20 PUSH2 0x9F4 DUP11 DUP3 DUP12 ADD PUSH2 0x989 JUMP JUMPDEST SWAP6 POP POP PUSH1 0x40 PUSH2 0xA05 DUP11 DUP3 DUP12 ADD PUSH2 0x989 JUMP JUMPDEST SWAP5 POP POP PUSH1 0x60 DUP9 ADD CALLDATALOAD PUSH8 0xFFFFFFFFFFFFFFFF DUP2 GT ISZERO PUSH2 0xA26 JUMPI PUSH2 0xA25 PUSH2 0x84D JUMP JUMPDEST JUMPDEST PUSH2 0xA32 DUP11 DUP3 DUP12 ADD PUSH2 0x915 JUMP JUMPDEST SWAP4 POP SWAP4 POP POP PUSH1 0x80 PUSH2 0xA45 DUP11 DUP3 DUP12 ADD PUSH2 0x897 JUMP JUMPDEST SWAP2 POP POP SWAP3 SWAP6 SWAP9 SWAP2 SWAP5 SWAP8 POP SWAP3 SWAP6 POP JUMP JUMPDEST PUSH2 0xA5D DUP2 PUSH2 0x96A JUMP JUMPDEST DUP3 MSTORE POP POP JUMP JUMPDEST PUSH0 PUSH1 0x20 DUP3 ADD SWAP1 POP PUSH2 0xA76 PUSH0 DUP4 ADD DUP5 PUSH2 0xA54 JUMP JUMPDEST SWAP3 SWAP2 POP POP JUMP JUMPDEST PUSH0 PUSH1 0x20 DUP3 DUP5 SUB SLT ISZERO PUSH2 0xA91 JUMPI PUSH2 0xA90 PUSH2 0x849 JUMP JUMPDEST JUMPDEST PUSH0 PUSH2 0xA9E DUP5 DUP3 DUP6 ADD PUSH2 0x989 JUMP JUMPDEST SWAP2 POP POP SWAP3 SWAP2 POP POP JUMP JUMPDEST PUSH0 DUP2 MLOAD SWAP1 POP SWAP2 SWAP1 POP JUMP JUMPDEST PUSH0 DUP3 DUP3 MSTORE PUSH1 0x20 DUP3 ADD SWAP1 POP SWAP3 SWAP2 POP POP JUMP JUMPDEST DUP3 DUP2 DUP4 MCOPY PUSH0 DUP4 DUP4 ADD MSTORE POP POP POP JUMP JUMPDEST PUSH0 PUSH1 0x1F NOT PUSH1 0x1F DUP4 ADD AND SWAP1 POP SWAP2 SWAP1 POP JUMP JUMPDEST PUSH0 PUSH2 0xAE9 DUP3 PUSH2 0xAA7 JUMP JUMPDEST PUSH2 0xAF3 DUP2 DUP6 PUSH2 0xAB1 JUMP JUMPDEST SWAP4 POP PUSH2 0xB03 DUP2 DUP6 PUSH1 0x20 DUP7 ADD PUSH2 0xAC1 JUMP JUMPDEST PUSH2 0xB0C DUP2 PUSH2 0xACF JUMP JUMPDEST DUP5 ADD SWAP2 POP POP SWAP3 SWAP2 POP POP JUMP JUMPDEST PUSH2 0xB20 DUP2 PUSH2 0x870 JUMP JUMPDEST DUP3 MSTORE POP POP JUMP JUMPDEST PUSH0 PUSH1 0xC0 DUP3 ADD SWAP1 POP PUSH2 0xB39 PUSH0 DUP4 ADD DUP10 PUSH2 0xA54 JUMP JUMPDEST DUP2 DUP2 SUB PUSH1 0x20 DUP4 ADD MSTORE PUSH2 0xB4B DUP2 DUP9 PUSH2 0xADF JUMP JUMPDEST SWAP1 POP PUSH2 0xB5A PUSH1 0x40 DUP4 ADD DUP8 PUSH2 0xA54 JUMP JUMPDEST PUSH2 0xB67 PUSH1 0x60 DUP4 ADD DUP7 PUSH2 0xA54 JUMP JUMPDEST DUP2 DUP2 SUB PUSH1 0x80 DUP4 ADD MSTORE PUSH2 0xB79 DUP2 DUP6 PUSH2 0xADF JUMP JUMPDEST SWAP1 POP PUSH2 0xB88 PUSH1 0xA0 DUP4 ADD DUP5 PUSH2 0xB17 JUMP JUMPDEST SWAP8 SWAP7 POP POP POP POP POP POP POP JUMP JUMPDEST PUSH0 PUSH1 0x20 DUP3 ADD SWAP1 POP PUSH2 0xBA6 PUSH0 DUP4 ADD DUP5 PUSH2 0xB17 JUMP JUMPDEST SWAP3 SWAP2 POP POP JUMP JUMPDEST PUSH32 0x4172746947616D653A204F6E6C7920626C61636B736D697468206F72206F776E PUSH0 DUP3 ADD MSTORE PUSH32 0x65722063616E2063726166740000000000000000000000000000000000000000 PUSH1 0x20 DUP3 ADD MSTORE POP JUMP JUMPDEST PUSH0 PUSH2 0xC06 PUSH1 0x2C DUP4 PUSH2 0xAB1 JUMP JUMPDEST SWAP2 POP PUSH2 0xC11 DUP3 PUSH2 0xBAC JUMP JUMPDEST PUSH1 0x40 DUP3 ADD SWAP1 POP SWAP2 SWAP1 POP JUMP JUMPDEST PUSH0 PUSH1 0x20 DUP3 ADD SWAP1 POP DUP2 DUP2 SUB PUSH0 DUP4 ADD MSTORE PUSH2 0xC33 DUP2 PUSH2 0xBFA JUMP JUMPDEST SWAP1 POP SWAP2 SWAP1 POP JUMP JUMPDEST PUSH32 0x4172746947616D653A2043616E6E6F7420637261667420746F207A65726F2061 PUSH0 DUP3 ADD MSTORE PUSH32 0x6464726573730000000000000000000000000000000000000000000000000000 PUSH1 0x20 DUP3 ADD MSTORE POP JUMP JUMPDEST PUSH0 PUSH2 0xC94 PUSH1 0x26 DUP4 PUSH2 0xAB1 JUMP JUMPDEST SWAP2 POP PUSH2 0xC9F DUP3 PUSH2 0xC3A JUMP JUMPDEST PUSH1 0x40 DUP3 ADD SWAP1 POP SWAP2 SWAP1 POP JUMP JUMPDEST PUSH0 PUSH1 0x20 DUP3 ADD SWAP1 POP DUP2 DUP2 SUB PUSH0 DUP4 ADD MSTORE PUSH2 0xCC1 DUP2 PUSH2 0xC88 JUMP JUMPDEST SWAP1 POP SWAP2 SWAP1 POP JUMP JUMPDEST PUSH32 0x4E487B7100000000000000000000000000000000000000000000000000000000 PUSH0 MSTORE PUSH1 0x11 PUSH1 0x4 MSTORE PUSH1 0x24 PUSH0 REVERT JUMPDEST PUSH0 PUSH2 0xCFF DUP3 PUSH2 0x96A JUMP JUMPDEST SWAP2 POP PUSH32 0xFFFFFFFFFFFFFFFFFFFFFFFFFFFFFFFFFFFFFFFFFFFFFFFFFFFFFFFFFFFFFFFF DUP3 SUB PUSH2 0xD31 JUMPI PUSH2 0xD30 PUSH2 0xCC8 JUMP JUMPDEST JUMPDEST PUSH1 0x1 DUP3 ADD SWAP1 POP SWAP2 SWAP1 POP JUMP JUMPDEST PUSH32 0x4E487B7100000000000000000000000000000000000000000000000000000000 PUSH0 MSTORE PUSH1 0x41 PUSH1 0x4 MSTORE PUSH1 0x24 PUSH0 REVERT JUMPDEST PUSH32 0x4E487B7100000000000000000000000000000000000000000000000000000000 PUSH0 MSTORE PUSH1 0x22 PUSH1 0x4 MSTORE PUSH1 0x24 PUSH0 REVERT JUMPDEST PUSH0 PUSH1 0x2 DUP3 DIV SWAP1 POP PUSH1 0x1 DUP3 AND DUP1 PUSH2 0xDAD JUMPI PUSH1 0x7F DUP3 AND SWAP2 POP JUMPDEST PUSH1 0x20 DUP3 LT DUP2 SUB PUSH2 0xDC0 JUMPI PUSH2 0xDBF PUSH2 0xD69 JUMP JUMPDEST JUMPDEST POP SWAP2 SWAP1 POP JUMP JUMPDEST PUSH0 DUP2 SWAP1 POP DUP2 PUSH0 MSTORE PUSH1 0x20 PUSH0 KECCAK256 SWAP1 POP SWAP2 SWAP1 POP JUMP JUMPDEST PUSH0 PUSH1 0x20 PUSH1 0x1F DUP4 ADD DIV SWAP1 POP SWAP2 SWAP1 POP JUMP JUMPDEST PUSH0 DUP3 DUP3 SHL SWAP1 POP SWAP3 SWAP2 POP POP JUMP JUMPDEST PUSH0 PUSH1 0x8 DUP4 MUL PUSH2 0xE22 PUSH32 0xFFFFFFFFFFFFFFFFFFFFFFFFFFFFFFFFFFFFFFFFFFFFFFFFFFFFFFFFFFFFFFFF DUP3 PUSH2 0xDE7 JUMP JUMPDEST PUSH2 0xE2C DUP7 DUP4 PUSH2 0xDE7 JUMP JUMPDEST SWAP6 POP DUP1 NOT DUP5 AND SWAP4 POP DUP1 DUP7 AND DUP5 OR SWAP3 POP POP POP SWAP4 SWAP3 POP POP POP JUMP JUMPDEST PUSH0 DUP2 SWAP1 POP SWAP2 SWAP1 POP JUMP JUMPDEST PUSH0 PUSH2 0xE67 PUSH2 0xE62 PUSH2 0xE5D DUP5 PUSH2 0x96A JUMP JUMPDEST PUSH2 0xE44 JUMP JUMPDEST PUSH2 0x96A JUMP JUMPDEST SWAP1 POP SWAP2 SWAP1 POP JUMP JUMPDEST PUSH0 DUP2 SWAP1 POP SWAP2 SWAP1 POP JUMP JUMPDEST PUSH2 0xE80 DUP4 PUSH2 0xE4D JUMP JUMPDEST PUSH2 0xE94 PUSH2 0xE8C DUP3 PUSH2 0xE6E JUMP JUMPDEST DUP5 DUP5 SLOAD PUSH2 0xDF3 JUMP JUMPDEST DUP3 SSTORE POP POP POP POP JUMP JUMPDEST PUSH0 PUSH0 SWAP1 POP SWAP1 JUMP JUMPDEST PUSH2 0xEAB PUSH2 0xE9C JUMP JUMPDEST PUSH2 0xEB6 DUP2 DUP5 DUP5 PUSH2 0xE77 JUMP JUMPDEST POP POP POP JUMP JUMPDEST JUMPDEST DUP2 DUP2 LT ISZERO PUSH2 0xED9 JUMPI PUSH2 0xECE PUSH0 DUP3 PUSH2 0xEA3 JUMP JUMPDEST PUSH1 0x1 DUP2 ADD SWAP1 POP PUSH2 0xEBC JUMP JUMPDEST POP POP JUMP JUMPDEST PUSH1 0x1F DUP3 GT ISZERO PUSH2 0xF1E JUMPI PUSH2 0xEEF DUP2 PUSH2 0xDC6 JUMP JUMPDEST PUSH2 0xEF8 DUP5 PUSH2 0xDD8 JUMP JUMPDEST DUP2 ADD PUSH1 0x20 DUP6 LT ISZERO PUSH2 0xF07 JUMPI DUP2 SWAP1 POP JUMPDEST PUSH2 0xF1B PUSH2 0xF13 DUP6 PUSH2 0xDD8 JUMP JUMPDEST DUP4 ADD DUP3 PUSH2 0xEBB JUMP JUMPDEST POP POP JUMPDEST POP POP POP JUMP JUMPDEST PUSH0 DUP3 DUP3 SHR SWAP1 POP SWAP3 SWAP2 POP POP JUMP JUMPDEST PUSH0 PUSH2 0xF3E PUSH0 NOT DUP5 PUSH1 0x8 MUL PUSH2 0xF23 JUMP JUMPDEST NOT DUP1 DUP4 AND SWAP2 POP POP SWAP3 SWAP2 POP POP JUMP JUMPDEST PUSH0 PUSH2 0xF56 DUP4 DUP4 PUSH2 0xF2F JUMP JUMPDEST SWAP2 POP DUP3 PUSH1 0x2 MUL DUP3 OR SWAP1 POP SWAP3 SWAP2 POP POP JUMP JUMPDEST PUSH2 0xF6F DUP3 PUSH2 0xAA7 JUMP JUMPDEST PUSH8 0xFFFFFFFFFFFFFFFF DUP2 GT ISZERO PUSH2 0xF88 JUMPI PUSH2 0xF87 PUSH2 0xD3C JUMP JUMPDEST JUMPDEST PUSH2 0xF92 DUP3 SLOAD PUSH2 0xD96 JUMP JUMPDEST PUSH2 0xF9D DUP3 DUP3 DUP6 PUSH2 0xEDD JUMP JUMPDEST PUSH0 PUSH1 0x20 SWAP1 POP PUSH1 0x1F DUP4 GT PUSH1 0x1 DUP2 EQ PUSH2 0xFCE JUMPI PUSH0 DUP5 ISZERO PUSH2 0xFBC JUMPI DUP3 DUP8 ADD MLOAD SWAP1 POP JUMPDEST PUSH2 0xFC6 DUP6 DUP3 PUSH2 0xF4B JUMP JUMPDEST DUP7 SSTORE POP PUSH2 0x102D JUMP JUMPDEST PUSH1 0x1F NOT DUP5 AND PUSH2 0xFDC DUP7 PUSH2 0xDC6 JUMP JUMPDEST PUSH0 JUMPDEST DUP3 DUP2 LT ISZERO PUSH2 0x1003 JUMPI DUP5 DUP10 ADD MLOAD DUP3 SSTORE PUSH1 0x1 DUP3 ADD SWAP2 POP PUSH1 0x20 DUP6 ADD SWAP5 POP PUSH1 0x20 DUP2 ADD SWAP1 POP PUSH2 0xFDE JUMP JUMPDEST DUP7 DUP4 LT ISZERO PUSH2 0x1020 JUMPI DUP5 DUP10 ADD MLOAD PUSH2 0x101C PUSH1 0x1F DUP10 AND DUP3 PUSH2 0xF2F JUMP JUMPDEST DUP4 SSTORE POP JUMPDEST PUSH1 0x1 PUSH1 0x2 DUP9 MUL ADD DUP9 SSTORE POP POP POP JUMPDEST POP POP POP POP POP POP JUMP JUMPDEST PUSH32 0x4172746947616D653A204F6E6C79206F776E65722063616E2063616C6C207468 PUSH0 DUP3 ADD MSTORE PUSH32 0x6973000000000000000000000000000000000000000000000000000000000000 PUSH1 0x20 DUP3 ADD MSTORE POP JUMP JUMPDEST PUSH0 PUSH2 0x108F PUSH1 0x22 DUP4 PUSH2 0xAB1 JUMP JUMPDEST SWAP2 POP PUSH2 0x109A DUP3 PUSH2 0x1035 JUMP JUMPDEST PUSH1 0x40 DUP3 ADD SWAP1 POP SWAP2 SWAP1 POP JUMP JUMPDEST PUSH0 PUSH1 0x20 DUP3 ADD SWAP1 POP DUP2 DUP2 SUB PUSH0 DUP4 ADD MSTORE PUSH2 0x10BC DUP2 PUSH2 0x1083 JUMP JUMPDEST SWAP1 POP SWAP2 SWAP1 POP JUMP JUMPDEST PUSH32 0x4172746947616D653A20496E76616C6964206164647265737300000000000000 PUSH0 DUP3 ADD MSTORE POP JUMP JUMPDEST PUSH0 PUSH2 0x10F7 PUSH1 0x19 DUP4 PUSH2 0xAB1 JUMP JUMPDEST SWAP2 POP PUSH2 0x1102 DUP3 PUSH2 0x10C3 JUMP JUMPDEST PUSH1 0x20 DUP3 ADD SWAP1 POP SWAP2 SWAP1 POP JUMP JUMPDEST PUSH0 PUSH1 0x20 DUP3 ADD SWAP1 POP DUP2 DUP2 SUB PUSH0 DUP4 ADD MSTORE PUSH2 0x1124 DUP2 PUSH2 0x10EB JUMP JUMPDEST SWAP1 POP SWAP2 SWAP1 POP JUMP JUMPDEST PUSH32 0x4172747947616D653A20416C7265616479000000000000000000000000000000 PUSH0 DUP3 ADD MSTORE POP JUMP JUMPDEST PUSH0 PUSH2 0x115F PUSH1 0x11 DUP4 PUSH2 0xAB1 JUMP JUMPDEST SWAP2 POP PUSH2 0x116A DUP3 PUSH2 0x112B JUMP JUMPDEST PUSH1 0x20 DUP3 ADD SWAP1 POP SWAP2 SWAP1 POP JUMP JUMPDEST PUSH0 PUSH1 0x20 DUP3 ADD SWAP1 POP DUP2 DUP2 SUB PUSH0 DUP4 ADD MSTORE PUSH2 0x118C DUP2 PUSH2 0x1153 JUMP JUMPDEST SWAP1 POP SWAP2 SWAP1 POP JUMP INVALID LOG2 PUSH5 0x6970667358 0x22 SLT KECCAK256 SWAP6 BYTE BLOBHASH MCOPY SWAP1 DUP11 0xEA DUP4 0xBB 0x29 0x29 0xCB 0xCD PUSH16 0x911EA4405A1D1929CC14FF25F2AEFFFA PUSH24 0x5B64736F6C634300081E0033000000000000000000000000 "
				},
				"gasEstimates": {
					"creation": {
						"codeDepositCost": "910600",
						"executionCost": "47316",
						"totalCost": "957916"
					},
					"external": {
						"artifactToOwner(uint256)": "2893",
						"artifacts(uint256)": "infinite",
						"blacksmiths(address)": "2811",
						"craftArtifact(string,uint256,uint256,string,address)": "infinite",
						"owner()": "2551",
						"registerBlacksmith(address)": "29336"
					}
				},
				"methodIdentifiers": {
					"artifactToOwner(uint256)": "bd7e878f",
					"artifacts(uint256)": "57f219b7",
					"blacksmiths(address)": "2df6b92e",
					"craftArtifact(string,uint256,uint256,string,address)": "35c3ecee",
					"owner()": "8da5cb5b",
					"registerBlacksmith(address)": "d6f8f75e"
				}
			},
			"storageLayout": {
				"storage": [
					{
						"astId": 16,
						"contract": "Contacts/first_var.sol:ArtiGame",
						"label": "owner",
						"offset": 0,
						"slot": "0",
						"type": "t_address"
					},
					{
						"astId": 21,
						"contract": "Contacts/first_var.sol:ArtiGame",
						"label": "artifacts",
						"offset": 0,
						"slot": "1",
						"type": "t_mapping(t_uint256,t_struct(Artifact)14_storage)"
					},
					{
						"astId": 25,
						"contract": "Contacts/first_var.sol:ArtiGame",
						"label": "artifactToOwner",
						"offset": 0,
						"slot": "2",
						"type": "t_mapping(t_uint256,t_address)"
					},
					{
						"astId": 28,
						"contract": "Contacts/first_var.sol:ArtiGame",
						"label": "_nextArtifactId",
						"offset": 0,
						"slot": "3",
						"type": "t_uint256"
					},
					{
						"astId": 70,
						"contract": "Contacts/first_var.sol:ArtiGame",
						"label": "blacksmiths",
						"offset": 0,
						"slot": "4",
						"type": "t_mapping(t_address,t_bool)"
					}
				],
				"types": {
					"t_address": {
						"encoding": "inplace",
						"label": "address",
						"numberOfBytes": "20"
					},
					"t_bool": {
						"encoding": "inplace",
						"label": "bool",
						"numberOfBytes": "1"
					},
					"t_mapping(t_address,t_bool)": {
						"encoding": "mapping",
						"key": "t_address",
						"label": "mapping(address => bool)",
						"numberOfBytes": "32",
						"value": "t_bool"
					},
					"t_mapping(t_uint256,t_address)": {
						"encoding": "mapping",
						"key": "t_uint256",
						"label": "mapping(uint256 => address)",
						"numberOfBytes": "32",
						"value": "t_address"
					},
					"t_mapping(t_uint256,t_struct(Artifact)14_storage)": {
						"encoding": "mapping",
						"key": "t_uint256",
						"label": "mapping(uint256 => struct ArtiGame.Artifact)",
						"numberOfBytes": "32",
						"value": "t_struct(Artifact)14_storage"
					},
					"t_string_storage": {
						"encoding": "bytes",
						"label": "string",
						"numberOfBytes": "32"
					},
					"t_struct(Artifact)14_storage": {
						"encoding": "inplace",
						"label": "struct ArtiGame.Artifact",
						"members": [
							{
								"astId": 3,
								"contract": "Contacts/first_var.sol:ArtiGame",
								"label": "id",
								"offset": 0,
								"slot": "0",
								"type": "t_uint256"
							},
							{
								"astId": 5,
								"contract": "Contacts/first_var.sol:ArtiGame",
								"label": "name",
								"offset": 0,
								"slot": "1",
								"type": "t_string_storage"
							},
							{
								"astId": 7,
								"contract": "Contacts/first_var.sol:ArtiGame",
								"label": "damage",
								"offset": 0,
								"slot": "2",
								"type": "t_uint256"
							},
							{
								"astId": 9,
								"contract": "Contacts/first_var.sol:ArtiGame",
								"label": "defense",
								"offset": 0,
								"slot": "3",
								"type": "t_uint256"
							},
							{
								"astId": 11,
								"contract": "Contacts/first_var.sol:ArtiGame",
								"label": "ipfsHash",
								"offset": 0,
								"slot": "4",
								"type": "t_string_storage"
							},
							{
								"astId": 13,
								"contract": "Contacts/first_var.sol:ArtiGame",
								"label": "creator",
								"offset": 0,
								"slot": "5",
								"type": "t_address"
							}
						],
						"numberOfBytes": "192"
					},
					"t_uint256": {
						"encoding": "inplace",
						"label": "uint256",
						"numberOfBytes": "32"
					}
				}
			},
			"userdoc": {
				"kind": "user",
				"methods": {
					"craftArtifact(string,uint256,uint256,string,address)": {
						"notice": "Создание (минт) нового уникального предмета во вселенной игры"
					}
				},
				"version": 1
			}
		}
	}
}